:100000000C9439000C943D0B0C943D0B0C943D0B5F
:100010000C943D0B0C943D0B0C943D0B0C943D0B40
:100020000C943D0B0C943D0B0C943D0B0C943D0B30
:100030000C943D0B0C943D0B0C943D0B0C943D0B20
:100040000C943D0B0C943D0B0C943D0B0C943D0B10
:100050000C943D0B006000DB8000DB00EB00167EA3
:1000600000EB00F48000F400F50000D300F500F888
:10007000800011241FBECFE5D8E0DEBFCDBFE4E590
:10008000F0E040E017C0B591A5913591259105911B
:1000900007FD0CC095918591EF01F92FE82F059090
:1000A0000D92A217B307D9F7FE0104C01D92A21743
:1000B000B307E1F7E137F40731F70E94E1090C9447
:0600C0006100F894FFCF7F
:0D00C60053796E746178206572726F72005C
:0100D300012B
:1000D40041E060E081E00E94CB0541E061E081E025
:1000E4000E94CB0541E062E081E00E94CB0541E043
:1000F40067E080E00E94CB0541E066E080E00E947A
:10010400CB0541E065E080E00E94CB0541E064E07E
:1001140080E00E94CB052FE788E391E021508040E6
:100124009040E1F700C0000041E063E080E00E94FD
:10013400CB0541E062E080E00E94CB0541E061E054
:1001440080E00E94CB0541E060E080E00E94CB05A6
:1001540040E060E081E00E94380640E061E081E038
:100164000E94380640E062E081E00E94380640E0E8
:1001740067E080E00E94380640E066E080E00E948C
:10018400380641E065E080E00E94380641E064E022
:1001940080E00E94380641E063E080E00E94380677
:1001A40040E062E080E00E94380640E061E080E0E8
:1001B4000E94380640E060E080E00E94380641E09A
:1001C40062E081E00E9438068FE19EE40197F1F736
:1001D40000C0000040E062E081E00E9438068FE148
:1001E4009EE40197F1F700C000008FEC97E00197BF
:1001F400F1F700C0000040E060E081E00E943806B2
:1002040040E061E081E00E94380640E062E081E085
:100214000E94380640E067E080E00E94380640E033
:1002240066E080E00E94380640E065E080E00E94DD
:10023400380640E064E080E00E94380641E063E074
:1002440080E00E94380641E062E080E00E943806C7
:1002540040E061E080E00E94380640E060E080E039
:100264000E94380641E062E081E00E9438068FE196
:100274009EE40197F1F700C0000040E062E081E0F5
:100284000E9438068FE19EE40197F1F700C0000058
:100294008FEC97E00197F1F700C0000040E060E0C8
:1002A40081E00E94380640E061E081E00E94380667
:1002B40040E062E081E00E94380640E067E080E0D0
:1002C4000E94380640E066E080E00E94380640E084
:1002D40065E080E00E94380640E064E080E00E942F
:1002E400380640E063E080E00E94380640E062E0C7
:1002F40080E00E94380640E061E080E00E94380619
:1003040041E060E080E00E94380641E062E081E084
:100314000E9438068FE19EE40197F1F700C00000C7
:1003240040E062E081E00E9438068FE19EE401979C
:10033400F1F700C000008FE99FE00197F1F700C0DA
:10034400000040E060E081E00E94380640E061E0A7
:1003540081E00E94380640E062E081E00E943806B5
:1003640040E067E080E00E94380640E066E080E01C
:100374000E94380640E065E080E00E94380640E0D4
:1003840064E080E00E94380640E063E080E00E9480
:10039400380641E062E080E00E94380641E061E016
:1003A40080E00E94380640E060E080E00E94380669
:1003B40041E062E081E00E9438068FE19EE401970B
:1003C400F1F700C0000040E062E081E00E943806DE
:1003D4008FE19EE40197F1F700C0000081E00895E9
:1003E4002F923F924F925F926F927F928F929F9241
:1003F400AF92BF92CF92DF92EF92FF920F931F932F
:10040400CF93DF93CDB7DEB728970FB6F894DEBF4E
:100414000FBECDBF29833A834B835C836D837E8378
:10042400382E292EA0E00E94000B21F480E30E94C4
:10043400DA0AEFC029813A814B815C816D817E812A
:10044400A0E00E94000BACF48DE20E94DA0A29813C
:100454003A814B815C816D817E81832D922D0E9436
:10046400AD0A29833A834B835C836D837E83382E64
:10047400292E81E01886912C812C712C612C512C11
:10048400412C8F837CC02F813885492D582D672DB1
:10049400762D852D942D01E00E94740A822E932ED0
:1004A40048875F83B62FA72FF82FE92F02E00E9419
:1004B400740AA22EB32EC42ED52EE62EF72E082FA4
:1004C400192F282D392D48855F816B2F7A2F8F2F77
:1004D4009E2F0E942B0B28873F83942E852E762EE9
:1004E400672E582E492E0F2EFAE0AF2EF02DB12C88
:1004F400C12CD12CE12CF12C00E010E029813A81AF
:100504004B815C816D817E81832D922D0E945509E2
:10051400A22EB32EC42ED52EE62EF72E082F192F79
:1005240028853F81492D582D672D762D852D942DB5
:100534000E942B0B2F833887942E852E762E672EC0
:10054400582E492E0F2EFAE0AF2EF02DB12CC12CCF
:10055400D12CE12CF12C00E010E029813A814B816F
:100564005C816D817E81832D922D0E9457092983A0
:100574003A834B835C836D837E83382E292E2981B5
:100584003A814B815C816D817E81832D922DA0E027
:100594000E94000B09F077CF30C041E060E081E0B9
:1005A4000E9438060F2EFAE0AF2EF02DB12CC12C8C
:1005B400D12CE12CF12C00E010E02F813885492D5D
:1005C400582D672D762D852D942D0E94550980E395
:1005D400820F0E940D072F813885492D582D672DD4
:1005E400762D852D942D0E9457092F833887942EBC
:1005F400852E762E672E582E492E2F813885492D2B
:10060400582D672D762D852D942DA1E00E94000B89
:1006140021F628960FB6F894DEBF0FBECDBFDF914A
:10062400CF911F910F91FF90EF90DF90CF90BF90EB
:10063400AF909F908F907F906F905F904F903F907E
:040644002F90089556
:100648008F929F92AF92BF92CF92DF92EF92FF92DA
:100658000F931F93CF93DF93C0E099C08A3209F0BC
:1006680049C0CF01880F991F880F991F880F991FBC
:100678009C0120593F4F4901D9012C9111963C9179
:10068800119712964C91129713965C9113971496A2
:100698006C91149715967C9115973196EE0FFF1F64
:1006A800EE0FFF1FEE0FFF1FE059FF4FA080B18034
:1006B800C280D380E480F5800681178116968C91DC
:1006C800169717969C910E94BA07F40120833183EC
:1006D80042835383648375838683978361E06C0FB9
:1006E80080E790E00E94D9086C2F80ED90E00E948E
:1006F8000C0B4DC08F3209F049C0CF01880F991FEC
:10070800880F991F880F991F9C0120593F4F490155
:10071800D9012C9111963C91119712964C911297F0
:1007280013965C91139714966C91149715967C9177
:1007380015973196EE0FFF1FEE0FFF1FEE0FFF1FED
:10074800E059FF4FA080B180C280D380E480F5805B
:100758000681178116968C91169717969C910E9480
:100768005709F4012083318342835383648375835B
:100778008683978361E06C0F80E790E00E94D90838
:100788006C2F80ED90E00E940C0B01C0CF5FEC2F26
:10079800F0E0DF01A053BF4F8C918D3311F0811130
:1007A8005DCFE0E7F0E0708161815281438134815F
:1007B8002581968187817093EB006093EC005093BC
:1007C800ED004093EE003093EF002093F0009093FB
:1007D800F1008093F200D1E0C0E024C02091EB004A
:1007E8003091EC004091ED005091EE006091EF00E7
:1007F8007091F0008091F1009091F2000E940A0837
:100808002093EB003093EC004093ED005093EE0002
:100818006093EF007093F0008093F1009093F200E2
:10082800CF5FDF5FEC2FF0E0E053FF4F8080FDE308
:100838008F16F9F0ED2FF0E0EE0FFF1FEE0FFF1F00
:10084800EE0FFF1FE059FF4FA080B180C280D38018
:10085800E480F580068117812A2D3B2D4C2D5D2DD6
:100868006E2D7F2D802F912FA0E00E94000B09F0A4
:10087800B5CF84E0DF91CF911F910F91FF90EF905A
:0E088800DF90CF90BF90AF909F908F9008951B
:10089600CF938F3609F060C0CFE7C60F40E060E027
:1008A60081E00E94380640E061E081E00E9438065F
:1008B60040E062E081E00E9438064C2F441F442746
:1008C600441F67E080E00E943806C6FB442740F9D3
:1008D60066E080E00E943806C5FB442740F965E0E3
:1008E60080E00E943806C4FB442740F964E080E0BB
:1008F6000E943806C3FB442740F963E080E00E946B
:100906003806C2FB442740F962E080E00E943806C0
:10091600C1FB442740F961E080E00E9438064C2F75
:10092600417060E080E00E94380641E062E081E0CC
:100936000E9438068FE19EE40197F1F700C000009F
:1009460040E062E081E00E9438068FE19EE4019774
:10095600F1F700C0000062C08E3D09F05FC0CFEB2A
:10096600C60F40E060E081E00E94380640E061E0AA
:1009760081E00E94380640E062E081E00E9438068D
:100986004C2F441F4427441F67E080E00E9438062E
:10099600C6FB442740F966E080E00E943806C5FBA6
:1009A600442740F965E080E00E943806C4FB4427EE
:1009B60040F964E080E00E943806C3FB442740F912
:1009C60063E080E00E943806C2FB442740F962E0FB
:1009D60080E00E943806C1FB442740F961E080E0D0
:1009E6000E9438064C2F417060E080E00E94380675
:1009F60041E062E081E00E9438068FE19EE40197C3
:100A0600F1F700C0000040E062E081E00E94380695
:100A16008FE19EE40197F1F700C00000CF910895A1
:100A2600EF92FF920F931F93CF93DF93CDB7DEB76D
:100A360060970FB6F894DEBF0FBECDBFFE013196AC
:100A460080E1DF011D928A95E9F781E08093F40049
:100A56008093F3008091600096ED980F923028F015
:100A66008D3219F08F3209F079C08D3209F479C0D0
:100A76008B3209F479C066EC70E080E00E94240AAB
:100A8600BFEF20E782E0B15020408040E1F700C090
:100A9600000080E070C02F2D30E0F901E05AFF4FD2
:100AA600808140ED480F4A3070F08D32A9F4F9018B
:100AB600E15AFF4F208136ED320F323020F02D32D1
:100AC60011F02F3249F4E1E0F0E0EC0FFD1FE90FE1
:100AD600F11D80839F5F3BC026ED280F223030F04A
:100AE6008D3221F08F3211F08D3389F59091F60019
:100AF600E92FF0E0E053FF4F80839F5F9093F6006D
:100B0600E090F7000E2D10E0CE0101960E94A5069A
:100B1600F801EE0FFF1FEE0FFF1FEE0FFF1FE0594C
:100B2600FF4F8B019C01330F000B102F9801608340
:100B36007183828393830483058306830783E39407
:100B4600E092F700CE0101960E94F40A90E0F39439
:100B56008091F50081508093F50008C0F12C90E05B
:100B660005C0F12C90E002C0F12C90E08091F500D8
:100B7600811191CF83E060960FB6F894DEBF0FBE69
:100B8600CDBFDF91CF911F910F91FF90EF90089508
:100B9600813001F130F08230B1F1833009F44CC07C
:100BA6000895413059F42AB381E090E002C0880FDD
:100BB600991F6A95E2F7822B8ABB08952AB381E0D2
:100BC60090E002C0880F991F6A95E2F7809582230C
:100BD6008ABB0895413059F427B381E090E002C002
:100BE600880F991F6A95E2F7822B87BB089527B372
:100BF60081E090E002C0880F991F6A95E2F7809520
:100C0600822387BB0895413059F424B381E090E0F4
:100C160002C0880F991F6A95E2F7822B84BB08955C
:100C260024B381E090E002C0880F991F6A95E2F72D
:100C36008095822384BB0895413059F421B381E025
:100C460090E002C0880F991F6A95E2F7822B81BB5C
:100C5600089521B381E090E002C0880F991F6A953C
:0A0C6600E2F78095822381BB089518
:100C7000813001F130F08230B1F1833009F44CC0A1
:100C80000895413059F42BB381E090E002C0880F01
:100C9000991F6A95E2F7822B8BBB08952BB381E0F5
:100CA00090E002C0880F991F6A95E2F78095822331
:100CB0008BBB0895413059F428B381E090E002C025
:100CC000880F991F6A95E2F7822B88BB089528B395
:100CD00081E090E002C0880F991F6A95E2F7809545
:100CE000822388BB0895413059F425B381E090E018
:100CF00002C0880F991F6A95E2F7822B85BB089581
:100D000025B381E090E002C0880F991F6A95E2F751
:100D10008095822385BB0895413059F422B381E048
:100D200090E002C0880F991F6A95E2F7822B82BB80
:100D3000089522B381E090E002C0880F991F6A9560
:0A0D4000E2F78095822382BB08953C
:100D4A004F925F926F927F928F929F92AF92BF92D1
:100D5A00CF92DF92EF92FF920F931F93FC012081B3
:100D6A002D3249F088248A94982C5401C12CD12C14
:100D7A007601C39407C0812C912C5401CC24CA94C7
:100D8A00DC2C760120E030E0A90124C089019A0117
:100D9A00000F111F221F331F28013901440C551C53
:100DAA00661C771C440C551C661C771C040D151D0B
:100DBA00261D371D462F50E040535109052E000CC1
:100DCA00660B770B28013901440E551E661E771EE5
:100DDA00A30192016FEF861A960AA60AB60AFC01C7
:100DEA00E80DF91D60816111D1CFC701B6010E94DA
:100DFA009D0A1F910F91FF90EF90DF90CF90BF90C7
:100E0A00AF909F908F907F906F905F904F900895D2
:100E1A00CF93C82F40E061E081E00E94380640E0AD
:100E2A0062E081E00E9438064C2F441F4427441F89
:100E3A0067E080E00E943806C6FB442740F966E076
:100E4A0080E00E943806C5FB442740F965E080E04F
:100E5A000E943806C4FB442740F964E080E00E94FF
:100E6A003806C3FB442740F963E080E00E94380655
:100E7A00C2FB442740F962E080E00E943806C1FBC9
:100E8A00442740F961E080E00E9438064C2F417007
:100E9A0060E080E00E94380641E062E081E00E9462
:100EAA0038068FE19EE40197F1F700C0000040E0A8
:100EBA0062E081E00E9438068FE19EE40197F1F733
:080ECA0000C00000CF91089563
:100ED20088249924F401E401B0E49F93AA279A1587
:100EE2008B049C04ED05FE05CF05D007A10798F4FD
:100EF200AD2FDC2FCF2FFE2FE92D982C892E982F86
:100F0200872F762F652F542F432F322F2227B85049
:100F120031F7BF9127C01B2EBF91BB27220F331F72
:100F2200441F551F661F771F881F991F881C991C15
:100F3200EE1FFF1FCC1FDD1FAA1FBB1F8A149B04BD
:100F4200EC05FD05CE05DF05A007B10748F08A18BC
:100F52009B08EC09FD09CE09DF09A00BB10B21604A
:100F62001A94E1F62EF49401AF01BE01CD01000CFA
:020F72000895E0
:100F7400DF93CF931F930F939A9DF02D219FF00D34
:100F84008B9DF00D8A9DE02DF10D039FF00D029FC6
:100F9400E00DF11D4E9DE00DF11D5E9DF00D4F9D88
:100FA400F00D7F936F93BF92AF925F934F93D501F0
:100FB4000E94BD0A8B01AC01D7010E94BD0AEB015E
:100FC400E80FF91FD6010E94220B2F913F91D60101
:100FD4000E94BD0AC60FD71FE81FF91FAF91BF912A
:100FE4000E94220B2F913F910E94BD0AC60FD71F6A
:100FF400E81FF91FD6010E94BD0AE60FF71F9801EA
:10100400BE01CF0111240F911F91CF91DF9108955B
:101014008F92AF92BF92CF92DF92EF92FF920F9393
:101024001F93CF93DF93CDB7DEB7EDE38E16D1F0E8
:10103400EBE28E1659F0E82DEC3218F4EA3261F046
:101044001AC0ED3231F0EF3251F015C00E942B0B73
:101054001AC00E94340B17C00E94BA0714C00E9421
:10106400570911C020E030E040E050E060E070E05B
:1010740080E090E008C020E030E040E050E060E034
:1010840070E080E090E0DF91CF911F910F91FF908D
:0E109400EF90DF90CF90BF90AF908F900895B7
:1010A200CF930E941909C82F27C0C13431F40E947E
:1010B200960881E090E00E94E70ACC23D1F0C13487
:1010C200C1F0E091F500F0E0E05AFF4FC0838C2FB1
:1010D20090E00E94DA0A8091F5008F5F8093F5001C
:1010E2002FE788E391E0215080409040E1F700C073
:1010F20000000E941909C82FCD33B9F6E091F5001E
:10110200F0E0E05AFF4F8DE380838DE390E00E9490
:10111200DA0AE091F500EF5FE093F500F0E0E05AC3
:0A112200FF4F108282E0CF91089584
:10112C0080E006C0E82FF0E0E05AFF4F10828F5F9E
:10113C008031C0F380E013C0E82FF0E0EE0FFF1F0A
:10114C00EE0FFF1FEE0FFF1FE059FF4F10821182B1
:10115C001282138214821582168217828F5F8C3052
:10116C0058F380E006C0E82FF0E0E053FF4F108208
:10117C008F5F8B30C0F31092F7001092F600109234
:10118C00F5001092EB001092EC001092ED00109212
:10119C00EE001092EF001092F0001092F1001092FD
:0611AC00F20081E008954D
:1011B2001F93CF93DF93EC01162FE12FF0E0DF01B5
:1011C200AA0FBB1FAA0FBB1FAA0FBB1FAC0FBD1FCD
:1011D2003196EE0FFF1FEE0FFF1FEE0FFF1FEC0FFA
:1011E200FD1F208131814281538164817581868115
:1011F20097812C9311963C93119712964C931297C8
:1012020013965C93139714966C93149715967C938C
:10121200159716968C93169717969C93A0E00E94AA
:10122200000B11F01F5FC9CFDF91CF911F9108957D
:101232000F931F93CF93DF930FEF2EC014E01D0F78
:1012420040E0612F82E00E943806C0E019C06C2F96
:1012520082E00E948609811112C0EC2FF0E0EE0FAD
:10126200FF1FEE0FFF1FE552FF4FED0FF11D008133
:101272008FE59AEE0197F1F700C0000003C0CF5F3F
:10128200C43028F341E0612F82E00E943806DF5F1C
:1012920001C0D0E0D43090F20F3FD9F3802FDF911C
:0812A200CF911F910F910895F7
:1012AA00689401C0E894F92FF12B12F00C94CF0A3C
:1012BA00A0E0B0E0E3E6F9E00C940E0A092E0594EA
:1012CA0022F40E94AD0A112392F4F0E80F26FFEFF0
:1012DA00E094F09400951095B094C094D094A194A1
:1012EA00BF0ACF0ADF0AEF0AFF0A0F0B1F0B0E9481
:1012FA00690707FC0E94AD0ACDB7DEB7ECE00C9493
:02130A00450A92
:10130C00813079F028F08230A9F08330E1F024C0EC
:10131C0089B390E002C0959587956A95E2F7817044
:10132C00089586B390E002C0959587956A95E2F78B
:10133C008170089583B390E002C0959587956A9566
:10134C00E2F78170089580B390E002C0959587957F
:0C135C006A95E2F78170089580E0089522
:1013680040E060E082E00E94CB0540E061E082E07E
:101378000E94CB0540E062E082E00E94CB0540E09D
:1013880063E082E00E94CB0541E064E082E00E94D5
:10139800CB0541E065E082E00E94CB0541E066E0D4
:1013A80082E00E94CB0541E067E082E00E94CB0525
:0A13B8006FEF82E00E948D0A089595
:1013C2000E94B4090E946A0081E002C00E94510892
:1013D2008130E1F302C00E9413058230E1F302C0C2
:1013E2000E9424038330E1F302C00E945A0A84302F
:1013F200E1F302C00E9496088823E1F30E941909D2
:0E1402008134E1F781E090E00E94E70ADDCF3F
:101410002F923F924F925F926F927F928F929F9204
:10142000AF92BF92CF92DF92EF92FF920F931F93F2
:10143000CF93DF93CDB7DEB7CA1BDB0B0FB6F894A3
:08144000DEBF0FBECDBF099411
:10144800CF92DF92EF92CF936B01E82EC0E003C0FA
:101458000E94DA0ACF5FAE2DC6018C0F911DA11D27
:10146800FC018491A7FD80818111F2CFCF91EF908B
:06147800DF90CF90089503
:10147E002A88398848885F846E847D848C849B8416
:10148E00AA84B984C884DF80EE80FD800C811B8124
:10149E00AA81B981CE0FD11D0FB6F894DEBF0FBE53
:0614AE00CDBFED01089521
:1014B40061E070E08EED90E00E944B042091EB001F
:1014C4003091EC004091ED005091EE006091EF00FE
:1014D4007091F0008091F1009091F2000E94F2016D
:0414E40080E0089507
:1014E8000F93083090F0982F872F762F652F542F61
:1014F800432F322F22270850F4CF220F331F441FC7
:10150800551F661F771F881F991F0A95B2F70F91FD
:02151800089534
:10151A00813041F028F0823039F0833039F0089573
:10152A006BBB089568BB089565BB089562BB0895B7
:10153A00DB018F939F930E94170BBF91AF91A29FDC
:10154A00800D911DA39F900DB29F900D11240895B7
:10155A006095709580959095309540955095219518
:10156A003F4F4F4F5F4F6F4F7F4F8F4F9F4F0895A2
:10157A00A29FB001B39FC001A39F700D811D1124CA
:0E158A00911DB29F700D811D1124911D0895B9
:10159800689401C0E8948F929F92CF93DF930E9442
:0C15A8006907DF91CF919F908F9008950C
:1015B400CF93C82F41E060E081E00E9438068C2F71
:0A15C4000E940D0781E0CF91089509
:1015CE00CF93C82F40E060E081E00E9438068C2F58
:0A15DE000E940D0781E0CF910895EF
:1015E800AC0190E002C010829F5FFA01E90FF11D83
:0815F80020812111F8CF0895B4
:101600000024A7FD00942A17300540055005600509
:081610007005800590050895A6
:101618009C01F901E60FF11D91819083992311F046
:061628006F5FF7CF08958B
:10162E000E94BD0AA59F900DB49F900DA49F800DA2
:06163E00911D1124089526
:101644000E94BD0A460F571FC81FD91F08F43196C0
:021654000895F7
:101656002A0D3B1D4C1D5D1D6E1D7F1D801F911F9C
:021666000895E5
:101668002A193B094C095D096E097F09800B910B0A
:021678000895D3
:04167A000C940000CC
:10167E003738392F3435362A3132332D41303D2B20
:00000001FF
