:100000000C942A000C9447000C9447000C94470071
:100010000C9447000C9447000C9447000C94470044
:100020000C9447000C9447000C9447000C94470034
:100030000C9447000C9447000C9447000C94470024
:100040000C9447000C9447000C9447000C94470014
:100050000C94470011241FBECFE5D8E0DEBFCDBF12
:1000600011E0A0E6B0E0E0E5F5E502C005900D92F4
:10007000A83AB107D9F712E0A8EAB1E001C01D9291
:10008000AF32B107E1F70E9457270C94A62A0C94CF
:100090000000A0E3B0E0EFE4F0E00C94CE27A8E08D
:1000A0004E010894811C911CF401BA2F1192BA954B
:1000B000E9F729833A834B835C836D837E838F8347
:1000C0009887CE010996FC011192AA95E9F7A986B5
:1000D000BA86CB86DC86ED86FE860F87188B298153
:1000E0003A814B815C812DA73EA74FA758AB790180
:1000F0008A018FEF9FEFA0E0B0E0E822F9220A2307
:100100001B231A014424552429853A854B855C8597
:1001100029A73AA74BA75CA759016A01A822B922CF
:10012000CA22DB223A0188249924C601B501A8011C
:1001300097010E948D276DA37EA38FA398A7C4016A
:10014000B3010E948D2769A37AA38BA39CA3C60148
:10015000B501A20191010E948D277B018C01C40190
:10016000B3010E948D275B016C0189A19AA1ABA10B
:10017000BCA18E0D9F1DA01FB11F89A39AA3ABA385
:10018000BCA32DA13EA14FA158A5CA01AA27BB27F8
:1001900029A13AA14BA15CA1280F391F4A1F5B1F5F
:1001A00029A33AA34BA35CA32E153F054007510793
:1001B00040F480E090E0A1E0B0E0A80EB91ECA1EB5
:1001C000DB1E89A19AA1ABA1BCA19D0144275527A3
:1001D0002A0D3B1D4C1D5D1D2D8F3E8F4F8F58A34B
:1001E0006C01BB24AA248DA19EA1AFA1B8A5A070CB
:1001F000B070A80EB91ECA1EDB1EA98EBA8ECB8E99
:10020000DC8E9A8C8B8C7C8C9E8D6F8D78A1FE0100
:10021000719688E0DF011D928A95E9F72D8B9E8B00
:100220006F8B788F2D853E854F8558896DA57EA56E
:100230008FA598A90E948D277B018C012D813E817D
:100240004F81588569A57AA58BA59CA50E948D270D
:10025000E60EF71E081F191F6D897E898F89988DFC
:100260006E0D7F1D801F911F6D8B7E8B8F8B988FE6
:10027000EE892A2D392D482D572D7E2F8F89988D67
:10028000E096E2E10C94EA27EF92FF920F931F931E
:100290007B018C0120E030E040E05FE40E946C0CC8
:1002A00088238CF0C801B70120E030E040E05FE433
:1002B0000E94E40A0E942A0D9B01AC0120503040AC
:1002C0004040504806C0C801B7010E942A0D9B015A
:1002D000AC01B901CA011F910F91FF90EF900895F1
:1002E000A2E7B0E0E6E7F1E00C94CE27982E892E45
:1002F000712E88E0FE013196DF01682E1D926A940E
:10030000E9F729833A834B835C836D837E839F82E5
:100310009887FE013996DF011D928A95E9F7A98633
:10032000BA86CB86DC86ED86FE860F87188B8D819C
:100330009E81AF81B885B7FD07C0E1961CAE1DAEAA
:100340001EAE1FAEE19764C0219581E0121608F041
:1003500080E0319591E0131608F090E0B32FB81BC0
:1003600081E03B1708F080E0982B419531E01416AE
:1003700008F030E0A42FA91B81E04A1708F080E0C4
:10038000382B519591E0151608F090E0F52FF31BEE
:1003900081E05F1708F080E0982B619531E0161638
:1003A00008F030E0E62FE91B81E06E1708F080E0EE
:1003B000382B719541E0171608F040E0572F531B7A
:1003C00081E0751708F080E0482B892D819591E038
:1003D000181608F090E0682E641A462D31E0861554
:1003E00008F030E0932B882D8195891B2983BA83EF
:1003F000AB83FC83ED835E834F8388872FEF3FEFD2
:100400004FEF5FEFE1962CAF3DAF4EAF5FAFE1979F
:100410008D859E85AF85B889B7FF6AC0E1964CADE2
:100420005DAD6EAD7FADE19740955095609570954F
:10043000E1964CAF5DAF6EAF7FAFE197A19481E0E5
:100440001A1408F080E0B19491E01B1408F090E0D9
:100450006B2D681B81E0B61608F080E0982BC194E4
:1004600021E01C1408F020E05C2D591B81E0C5162A
:1004700008F080E0282BD19491E01D1408F090E062
:100480004D2D421B81E0D41608F080E0982BE194BA
:1004900021E01E1408F020E03E2D391B81E0E31618
:1004A00008F080E0282BF19491E01F1408F090E010
:1004B0007F2D721B272F81E0F71608F080E0982B24
:1004C000019511E0101608F010E0802F891B982F7D
:1004D00081E0091708F080E0182B872D8195811B9A
:1004E000A9866A875B874C873D872E879F87888B85
:1004F00099812A813B814C815D816E817F81A885B4
:10050000B9851A850B85FC84ED84DE84CF84B88898
:1005100088E0E1E18E2E912C8C0E9D1EF401682E58
:1005200011926A94E9F7998B2A8B3B8B4C8B5D8BEC
:100530006E8B7F8BA88F9E01275E3F4FF901119232
:100540008A95E9F7B98F1A8F0B8FFC8EED8EDE8EB0
:10055000CF8EB8A2298C3A8C4B8C5C8CED8CFE8CA7
:100560000F8D18A169887A888B889C8821966CAE3B
:100570007DAE8EAE9FAE21976D887E888F88988CD9
:10058000E114F1040105110509F0D9C362147304E3
:100590008404950408F057C100E0201600E03006FE
:1005A00001E0400600E0500688F41FEF21163104F8
:1005B0004104510439F030F048E0E42EF12C012DD3
:1005C000112D18C0EE24FF24870114C020E022164C
:1005D00020E0320620E0420621E0520630F038E109
:1005E000E32EF12C012D112D05C020E1E22EF12C7E
:1005F000012D112DD201C1010E2C04C0B695A79575
:10060000979587950A94D2F78A579F4FDC012C91D2
:1006100080E290E0A0E0B0E08E199F09A00BB10B42
:100620007C018D01E21AF10801091109E114F104BC
:1006300001051105D1F10E2C04C0220C331C441C01
:10064000551C0A94D2F7A40193010E2C04C0220F6A
:10065000331F441F551F0A94D2F780E290E08E1991
:100660009F0921966CAC7DAC8EAC9FAC219704C0E9
:1006700096948794779467948A95D2F7622A732A1E
:10068000842A952A2196ACACBDACCEACDFAC2197C8
:1006900004C0AA0CBB1CCC1CDD1CEA94D2F721962A
:1006A000ACAEBDAECEAEDFAE21976201EE24FF242C
:1006B0002996CCAEDDAEEEAEFFAE29979201810158
:1006C000207030702D960CAF1DAF2EAF3FAF2D9721
:1006D000C401B301A70196010E94AC277B018C01E4
:1006E000C401B30129962CAD3DAD4EAD5FAD299748
:1006F0000E94AC27C901DA013C014D01C401B301DC
:100700002D962CAD3DAD4EAD5FAD2D970E948D2742
:100710009B01AC018701FF24EE242196ACACBDAC5B
:10072000CEACDFAC2197C601AA27BB2757016801D1
:10073000A82AB92ACA2ADB2AA216B306C406D506F5
:10074000E0F408946108710881089108A20CB31CB8
:10075000C41CD51CA214B304C404D50470F0A216A2
:10076000B306C406D50648F40894610871088108E8
:100770009108A20CB31CC41CD51CA21AB30AC40A4B
:10078000D50AC601B50129962CAD3DAD4EAD5FAD84
:1007900029970E94AC277B018C01C601B5012996DF
:1007A0002CAD3DAD4EAD5FAD29970E94AC27C90180
:1007B000DA015C016D01C601B5012D962CAD3DAD90
:1007C0004EAD5FAD2D970E948D279B01AC01870137
:1007D000FF24EE2421968CAD9DADAEADBFAD21972B
:1007E000A070B070E82AF92A0A2B1B2BE216F30638
:1007F00004071507C0F40894A108B108C108D1087E
:10080000E20CF31C041D151DE214F3040405150588
:1008100050F0E216F3060407150728F40894A1081F
:10082000B108C108D108D30199278827860175012D
:10083000E82AF92A0A2B1B2B2596ECAEFDAE0EAF4B
:100840001FAF2597EBC4211431044104510471F406
:1008500061E070E080E090E020E030E040E050E0D7
:100860000E94AC27C901DA011C012D0100E020160D
:1008700000E0300601E0400600E0500688F41FEF7B
:10088000211631044104510431F028F048E050E0D1
:1008900060E070E017C040E050E060E070E012C03F
:1008A00020E0221620E0320620E0420621E0520637
:1008B00028F048E150E060E070E004C040E150E022
:1008C00060E070E0D201C101042E04C0B695A79586
:1008D000979587950A94D2F78A579F4FDC012C9100
:1008E000E0E2EE2EF12C012D112DD801C701841B61
:1008F000950BA60BB70B821B9109A109B1090097B3
:10090000A105B10561F464015301A218B308C4083C
:10091000D50831E0632E712C812C912C24C1E396F3
:100920008FAFE397082E04C0220C331C441C551CC7
:100930000A94D2F7EE2DE81B640153010E2E04C079
:10094000D694C794B794A7940A94D2F7A4019301BC
:10095000E3960FACE39704C0220F331F441F551FCB
:100960000A94D2F721966CAC7DAC8EAC9FAC2197EB
:100970000E2E04C096948794779467940A94D2F7C5
:1009800084017301E22AF32A042B152BE9AEFAAE97
:100990000BAF1CAF32018824992492018101207091
:1009A000307061960CAF1DAF2EAF3FAF6197C6019F
:1009B000B501A40193010E94AC277B018C01C60103
:1009C000B501A40193010E94AC27C901DA01659623
:1009D0008CAF9DAFAEAFBFAF6597BC01CD01619647
:1009E0002CAD3DAD4EAD5FAD61970E948D279B0153
:1009F000AC018701FF24EE24A9ACBAACCBACDCACD3
:100A0000C601AA27BB275C016D01AE28BF28C02AFA
:100A1000D12AA216B306C406D50660F565966CAD5C
:100A20007DAD8EAD9FAD6597615070408040904028
:100A300065966CAF7DAF8EAF9FAF6597A20CB31C70
:100A4000C41CD51CA214B304C404D50498F0A21687
:100A5000B306C406D50670F46150704080409040E3
:100A600065966CAF7DAF8EAF9FAF6597A20CB31C40
:100A7000C41CD51CA21AB30AC40AD50AC601B50102
:100A8000A40193010E94AC277B018C01C601B50132
:100A9000A40193010E94AC27C901DA013C014D0178
:100AA000C401B30161962CAD3DAD4EAD5FAD619714
:100AB0000E948D279B01AC018701FF24EE2489ADA4
:100AC0009AADABADBCADA070B07057016801A82A5B
:100AD000B92ACA2ADB2AA216B306C406D506E0F450
:100AE00008946108710881089108A20CB31CC41C09
:100AF000D51CA214B304C404D50470F0A216B30626
:100B0000C406D50648F40894610871088108910864
:100B1000A20CB31CC41CD51C21968CAD9DADAEADF2
:100B2000BFAD2197E3960FACE39704C0880F991FE0
:100B3000AA1FBB1F0A94D2F721968CAF9DAFAEAF10
:100B4000BFAF2197A21AB30AC40AD50A6596ECACC6
:100B5000FDAC0EAD1FAD6597D70199278827682A90
:100B6000792A8A2A9B2A82012227332769960CAF89
:100B70001DAF2EAF3FAF6997A20191014070507039
:100B80006D962CAF3DAF4EAF5FAF6D97C601B5010F
:100B900069962CAD3DAD4EAD5FAD69970E94AC2717
:100BA0007B018C01C601B50169962CAD3DAD4EAD02
:100BB0005FAD69970E94AC27C901DA01A1968CAF9D
:100BC0009DAFAEAFBFAFA197BC01CD016D962CAD6F
:100BD0003DAD4EAD5FAD6D970E948D279B01AC0181
:100BE0008701FF24EE242196ACACBDACCEACDFACCB
:100BF0002197C601AA27BB2757016801A82AB92A4D
:100C0000CA2ADB2AA216B306C406D50660F5A19649
:100C10006CAD7DAD8EAD9FADA197615070408040B1
:100C20009040A1966CAF7DAF8EAF9FAFA197A20C05
:100C3000B31CC41CD51CA214B304C404D50498F07E
:100C4000A216B306C406D50670F461507040804009
:100C50009040A1966CAF7DAF8EAF9FAFA197A20CD5
:100C6000B31CC41CD51CA21AB30AC40AD50AC601F7
:100C7000B50169962CAD3DAD4EAD5FAD69970E9453
:100C8000AC277B018C01C601B50169962CAD3DAD49
:100C90004EAD5FAD69970E94AC27C901DA015C01D6
:100CA0006D01C601B5016D962CAD3DAD4EAD5FAD8C
:100CB0006D970E948D279B01AC018701FF24EE24D4
:100CC00021968CAD9DADAEADBFAD2197A070B0703B
:100CD000E82AF92A0A2B1B2BE216F306040715074C
:100CE000C0F40894A108B108C108D108E20CF31CB3
:100CF000041D151DE214F3040405150550F0E21659
:100D0000F3060407150728F40894A108B108C108E0
:100D1000D108A196ECACFDAC0EAD1FADA197D701EB
:100D20009927882796018501082B192B2A2B3B2B05
:100D300025960CAF1DAF2EAF3FAF259772C26E1434
:100D40007F048006910608F45FC220E0E21620E0EE
:100D5000F20621E0020720E0120788F43FEFE316D5
:100D6000F1040105110531F028F048E050E060E0A1
:100D700070E017C040E050E060E070E012C040E07A
:100D8000E41640E0F40640E0040741E0140728F0D0
:100D900048E150E060E070E004C040E150E060E015
:100DA00070E0D801C701042E04C0B695A7959795A9
:100DB00087950A94D2F78A579F4FDC012C9130E235
:100DC000A32EB12CC12CD12CD601C501841B950BAF
:100DD000A60BB70B821B9109A109B1090097A105C8
:100DE000B10599F4E614F7040805190508F4FEC1E5
:100DF00021966CAC7DAC8EAC9FAC219762147304D1
:100E00008404950408F0F2C1FFC1E2968FAFE29727
:100E1000082E04C0EE0CFF1C001F111F0A94D2F70D
:100E20006A2D681BD201C101062E04C0B695A79594
:100E3000979587950A94D2F75C016D01AE28BF287B
:100E4000C02AD12AADAABEAACFAAD8AE720161012A
:100E5000E2960FACE29704C0CC0CDD1CEE1CFF1C2C
:100E60000A94D2F7C9AADAAAEBAAFCAA6401530130
:100E7000062E04C0D694C794B794A7940A94D2F7C8
:100E8000D401C301E2960FACE29704C0880F991F0A
:100E9000AA1FBB1F0A94D2F72196ECACFDAC0EAD95
:100EA0001FAD219704C016950795F794E7946A95AE
:100EB000D2F737014801682A792A8A2A9B2A6DA627
:100EC0007EA68FA698AAEDA8FEA80FA918AD380196
:100ED000882499249801870120703070A5960CAF62
:100EE0001DAF2EAF3FAFA597C601B501A401930179
:100EF0000E94AC277B018C01C601B501A4019301BE
:100F00000E94AC27C901DA011C012D01C201B10107
:100F1000A5962CAD3DAD4EAD5FADA5970E948D273A
:100F20009B01AC018701FF24EE24ADA4BEA4CFA495
:100F3000D8A8C601AA27BB2757016801A82AB92A41
:100F4000CA2ADB2AA216B306C406D50600F5089401
:100F50002108310841085108EDA8FEA80FA918ADD5
:100F6000AE0CBF1CC01ED11EAE14BF04C006D106FD
:100F700070F0A216B306C406D50648F408942108FA
:100F8000310841085108AE0CBF1CC01ED11EA21A68
:100F9000B30AC40AD50AC601B501A40193010E948F
:100FA000AC277B018C01C601B501A40193010E940D
:100FB000AC27C901DA013C014D01C401B301A5967A
:100FC0002CAD3DAD4EAD5FADA5970E948D279B0129
:100FD000AC018701FF24EE248DA59EA5AFA5B8A97D
:100FE000A070B07057016801A82AB92ACA2ADB2A62
:100FF000A216B306C406D50600F508946108710868
:10100000810891086DA97EA98FA998ADA60EB71E7B
:10101000C81ED91EA616B706C806D90670F0A216B5
:10102000B306C406D50648F408946108710881081F
:101030009108A60EB71EC81ED91ED601C501821B77
:10104000930BA40BB50B89A79AA7ABA7BCA7D1019B
:101050009927882764015301A82AB92ACA2ADB2ABA
:101060002596ACAEBDAECEAEDFAE2597860175013E
:101070002FEF3FEF40E050E0E222F322042315235C
:10108000A60166277727AD964CAF5DAF6EAF7FAFF9
:10109000AD97A9A8BAA8CBA8DCA86FEF7FEF80E036
:1010A00090E0A622B722C822D92289A99AA9ABA981
:1010B000BCA91D0144245524C801B701A60195010E
:1010C0000E948D27A9966CAF7DAF8EAF9FAFA99779
:1010D000C801B701A20191010E948D273B014C017B
:1010E000AD966CAD7DAD8EAD9FADAD97A601950172
:1010F0000E948D277B018C01AD966CAD7DAD8EADD0
:101100009FADAD97A20191010E948D275B016C01FB
:10111000A8019701260D371D481D591DA9966CACD5
:101120007DAC8EAC9FACA997C401AA27BB27280F22
:10113000391F4A1F5B1F2E153F054007510748F412
:10114000E12CF12C61E0062F112DAE0CBF1CC01E4E
:10115000D11ECA01AA27BB27BC01CD016A0D7B1D88
:101160008C1D9D1D69A47AA48BA49CA46616770689
:101170008806990650F1661577058805990509F0E6
:101180004DC0D90199278827A9962CAD3DAD4EAD0C
:101190005FADA99740705070820F931FA41FB51FB9
:1011A00021962CAD3DAD4EAD5FAD2197E2960FACD3
:1011B000E29704C0220F331F441F551F0A94D2F731
:1011C000281739074A075B0748F525960CAD1DAD72
:1011D0002EAD3FAD25970150104020403040259660
:1011E0000CAF1DAF2EAF3FAF259718C066247724F4
:1011F000430121E030E040E050E025962CAF3DAFC8
:101200004EAF5FAF25970DC0662477244301259626
:101210001CAE1DAE1EAE1FAE259703C066247724FC
:101220004301FE01B19688E0DF011D928A95E9F73E
:101230002596ACACBDACCEACDFAC2597A9A2BAA2CA
:10124000CBA2DCA26DA27EA28FA298A622962FAD81
:1012500022973AA14BA15CA1662D7EA1DFA098A5A3
:10126000E196ECACFDAC0EAD1FADE197E114F104DD
:101270000105110509F456C0219581E0121608F008
:1012800080E03195E1E0131608F0E0E0932E981A23
:1012900081E0391508F080E0E82B4195F1E0141663
:1012A00008F0F0E0A42EAE1A81E04A1508F080E0C4
:1012B000F82B5195E1E0151608F0E0E0B52EBF1AC5
:1012C00081E05B1508F080E0E82B6195F1E01616EF
:1012D00008F0F0E0A62FAE1B81E06A1708F080E06E
:1012E000F82B7195E1E0171608F0E0E0C72ECF1A51
:1012F00081E07C1508F080E0E82B8D2D8195F1E0F0
:10130000181608F0F0E0D82EDE1AE1E08D1508F08E
:10131000E0E0FE2B892F8195392DA5016A2F7C2DC8
:10132000982F9F1B8D2DCE58DF4FE2E10C94EA27BA
:10133000A0E0B0E0EEE9F9E00C94CE27DC012B014F
:10134000FA019C91923008F439C1EB018881823016
:1013500008F433C1943069F4843009F02FC1119638
:101360009C9111978981981709F428C1AEE7B0E0E4
:1013700025C1843009F421C18230A9F4923009F0EA
:101380001DC19A01AD0188E0EA010990AE01E901B1
:1013900009929E018150C1F7E201898111969C91C9
:1013A0008923818308C1923009F407C112962D90D8
:1013B0003C901397EB018A819B811496AD90BD9070
:1013C000CD90DC901797EC80FD800E811F819101FC
:1013D000281B390BB90137FF04C066277727621B2A
:1013E000730B603271050CF061C0121613066CF5B8
:1013F00037014801062E04C0969487947794679429
:101400000A94D2F721E030E040E050E004C0220F1F
:10141000331F441F551F6A95D2F72150304040407A
:1014200050402E213F2140235123211531054105F4
:10143000510521F021E030E040E050E079018A01DF
:10144000E628F728082919293CC0232BD1F1260EBC
:10145000371E35014601062E04C096948794779472
:1014600067940A94D2F721E030E040E050E004C0F5
:10147000220F331F441F551F6A95D2F72150304069
:10148000404050402A213B214C215D21211531054E
:101490004105510521F021E030E040E050E05901E4
:1014A0006A01A628B728C828D9280BC08215930539
:1014B0002CF01C01AA24BB24650103C0EE24FF24E8
:1014C000870111969C91D20111968C91981709F47D
:1014D00045C0992339F0A80197012A193B094C0905
:1014E0005D0906C0A60195012E193F09400B510B5D
:1014F00057FD08C0118233822282248335834683BC
:1015000057831DC081E081833382228288279927F7
:10151000DC01821B930BA40BB50B84839583A683FC
:10152000B7830DC0220F331F441F551F24833583FB
:101530004683578382819381019793838283248199
:10154000358146815781DA01C9010197A109B109A5
:101550008F5F9F4FAF4FBF4328F30BC09183338200
:101560002282EA0CFB1C0C1D1D1DE482F582068301
:10157000178383E08083248135814681578157FF1B
:101580001AC0C901AA2797FDA095BA2F8170907043
:10159000A070B0705695479537952795822B932B61
:1015A000A42BB52B84839583A683B78382819381F3
:1015B000019693838283DF0101C0D201CD01CDB7B3
:1015C000DEB7E2E10C94EA27A0E2B0E0EAEEFAE04E
:1015D0000C94DA2769837A838B839C832D833E83E3
:1015E0004F835887E9E0EE2EF12CEC0EFD1ECE0164
:1015F0000196B7010E94A20E8E010F5E1F4FCE0111
:101600000596B8010E94A20E8A8991E089278A8BEB
:10161000C701B801AE01475E5F4F0E9498090E9462
:10162000CD0DA096E6E00C94F627A0E2B0E0EBE149
:10163000FBE00C94DA2769837A838B839C832D8368
:101640003E834F835887F9E0EF2EF12CEC0EFD1E00
:10165000CE010196B7010E94A20E8E010F5E1F4FB0
:10166000CE010596B8010E94A20EC701B801AE01D5
:10167000475E5F4F0E9498090E94CD0DA096E6E05C
:101680000C94F627A0E2B0E0E8E4FBE00C94CE274F
:1016900069837A838B839C832D833E834F83588712
:1016A000CE010196BE01675F7F4F0E94A20ECE0160
:1016B0000596BE016F5E7F4F0E94A20E9985923003
:1016C00088F089898230C8F0943019F4823051F45E
:1016D00004C0843029F4923081F48EE790E0C6C0D3
:1016E000923049F420E09A858A89981321E02A876C
:1016F000CE010996BBC0823049F420E09A858A89E0
:10170000981321E02A8BCE014196B0C02D843E84EF
:101710004F8458886D887E888F88988CEE24FF24AB
:101720008701AA24BB24650140E050E060E070E03E
:10173000E0E0F0E0C10181709070892BE9F0E60CE7
:10174000F71C081D191D9A01AB012A0D3B1D4C1DEC
:101750005D1D80E090E0A0E0B0E0E614F70408052D
:10176000190520F481E090E0A0E0B0E0BA01A90101
:10177000480F591F6A1F7B1FAA0CBB1CCC1CDD1C09
:1017800097FE08C081E090E0A0E0B0E0A82AB92A66
:10179000CA2ADB2A3196E032F10549F0660C771C43
:1017A000881C991C5694479437942794C3CFFA8584
:1017B000EA892B893C898B859C85280F391F2E5FF0
:1017C0003F4F17C0CA0181709070892B61F0169548
:1017D0000795F794E79480E090E0A0E0B0E8E82A6D
:1017E000F92A0A2B1B2B76956795579547952F5FFE
:1017F0003F4F77FDE7CF0CC0440F551F661F771F83
:1018000017FD4160EE0CFF1C001F111F21503040DE
:10181000403090E0590790E0690790E4790760F361
:101820002B8F3C8FDB01CA018F779070A070B07056
:1018300080349105A105B10561F447FD0AC0E114AA
:10184000F1040105110529F0405C5F4F6F4F7F4F98
:1018500040781A8EFE1711F081E08A8F4D8F5E8FCF
:101860006F8F78A383E0898FCE0149960E94CD0DBA
:10187000A096E2E10C94EA27A8E1B0E0E2E4FCE003
:101880000C94DA2769837A838B839C832D833E8330
:101890004F83588789E0E82EF12CEC0EFD1ECE0117
:1018A0000196B7010E94A20E8E010F5E1F4FCE015E
:1018B0000596B8010E94A20E8985823040F0898980
:1018C000823028F0C701B8010E941A0F01C08FEFC3
:1018D0006896E6E00C94F627A8E1B0E0E2E7FCE0C9
:1018E0000C94DA2769837A838B839C832D833E83D0
:1018F0004F83588789E0E82EF12CEC0EFD1ECE01B7
:101900000196B7010E94A20E8E010F5E1F4FCE01FD
:101910000596B8010E94A20E8985823040F089891F
:10192000823028F0C701B8010E941A0F01C08FEF62
:101930006896E6E00C94F627A8E1B0E0E2EAFCE065
:101940000C94DA2769837A838B839C832D833E836F
:101950004F83588789E0E82EF12CEC0EFD1ECE0156
:101960000196B7010E94A20E8E010F5E1F4FCE019D
:101970000596B8010E94A20E8985823040F08989BF
:10198000823028F0C701B8010E941A0F01C081E01F
:101990006896E6E00C94F627A8E0B0E0E2EDFCE003
:1019A0000C94D7279B01AC0183E08983DA01C9013C
:1019B0008827B7FD83959927AA27BB27B82E21151D
:1019C00031054105510519F482E089833AC0882325
:1019D000A9F0203080E0380780E0480780E8580709
:1019E00029F460E070E080E09FEC30C0EE24FF243A
:1019F0008701E21AF30A040B150B02C079018A0170
:101A00008EE1C82ED12CDC82CB82ED82FE820F8348
:101A10001887C801B7010E947E0D01971816190694
:101A200084F4082E04C0EE0CFF1C001F111F0A9442
:101A3000D2F7ED82FE820F831887C81AD90ADC829A
:101A4000CB82BA82CE0101960E94CD0D2896E9E0A4
:101A50000C94F327ACE0B0E0E0E3FDE00C94DE276B
:101A600069837A838B839C83CE010196BE016B5F71
:101A70007F4F0E94A20E8D81823061F1823050F141
:101A8000843021F48E81882351F12EC02F81388536
:101A900037FD20C06E812F3131051CF06623F9F02F
:101AA00023C08EE190E0821B930B29853A854B85FC
:101AB0005C8504C056954795379527958A95D2F74A
:101AC0006623B1F050954095309521953F4F4F4F8B
:101AD0005F4F0EC020E030E040E050E009C02FEF43
:101AE0003FEF4FEF5FE704C020E030E040E050E818
:101AF000B901CA012C96E2E00C94FA27EF92FF920A
:101B00000F931F937B018C0180E0E81680E0F806BC
:101B100081E0080780E0180788F48FEFE816F104E9
:101B20000105110531F028F088E090E0A0E0B0E078
:101B300017C080E090E0A0E0B0E012C080E0E816BE
:101B400080E0F80680E0080781E0180728F088E1C7
:101B500090E0A0E0B0E004C080E190E0A0E0B0E060
:101B600020E230E040E050E0281B390B4A0B5B0BD1
:101B700004C016950795F794E7948A95D2F7F70174
:101B8000EA57FF4F8081281B310941095109C901DA
:101B90001F910F91FF90EF900895DF92EF92FF92C7
:101BA0000F931F93FC01E480F58006811781D1809B
:101BB0008081823048F480E090E0A0E1B0E0E82A43
:101BC000F92A0A2B1B2BA5C0843009F49FC0823050
:101BD00021F4EE24FF24870105C0E114F10401057E
:101BE000110519F4E0E0F0E096C0628173819FEF87
:101BF000623879070CF05BC022E83FEF261B370BF9
:101C00002A3131052CF020E030E040E050E02AC0DD
:101C1000B801A701022E04C07695679557954795A0
:101C20000A94D2F781E090E0A0E0B0E004C0880F11
:101C3000991FAA1FBB1F2A95D2F70197A109B109C5
:101C40008E219F21A023B1230097A105B10521F08A
:101C500081E090E0A0E0B0E09A01AB01282B392BA5
:101C60004A2B5B2BDA01C9018F779070A070B0709E
:101C700080349105A105B10539F427FF09C0205C26
:101C80003F4F4F4F5F4F04C0215C3F4F4F4F5F4F5F
:101C9000E0E0F0E02030A0E03A07A0E04A07A0E44E
:101CA0005A0710F0E1E0F0E079018A0127C06038BE
:101CB000710564F5FB01E158FF4FD801C7018F772B
:101CC0009070A070B07080349105A105B10539F411
:101CD000E7FE0DC080E490E0A0E0B0E004C08FE338
:101CE00090E0A0E0B0E0E80EF91E0A1F1B1F17FFEE
:101CF00005C016950795F794E794319687E01695F9
:101D00000795F794E7948A95D1F705C0EE24FF2450
:101D10008701EFEFF0E06E2F679566276795902FAC
:101D20009F77D794DD24D7948E2F8695492F462B05
:101D3000582F5D29B701CA011F910F91FF90EF90B5
:101D4000DF900895FC01DB01408151812281622FE7
:101D50006F7770E0221F2227221F9381892F880F1F
:101D6000822B282F30E0991F9927991F11969C9359
:101D7000119721153105A9F5411551056105710529
:101D800011F482E037C082E89FEF13969C938E9304
:101D900012979A01AB0167E0220F331F441F551FB2
:101DA0006A95D1F783E08C930DC0220F331F441F37
:101DB000551F12968D919C911397019713969C93A2
:101DC0008E931297203080E0380780E0480780E447
:101DD000580758F314962D933D934D935C931797A2
:101DE00008952F3F310579F44115510561057105BD
:101DF00019F484E08C93089564FF03C081E08C9310
:101E000012C01C9210C02F57304013963C932E9353
:101E1000129783E08C9387E0440F551F661F771F4E
:101E20008A95D1F7706414964D935D936D937C936E
:101E3000179708951F93DC01FB019C91923008F4E1
:101E400047C08081823008F443C0943051F4119629
:101E50001C91843099F58181682F70E0611B7109B4
:101E60003FC0843021F0923031F48230B9F1818169
:101E7000882389F12DC011961C9111978230F1F0C1
:101E800081811817D9F412962D913C911397828174
:101E900093818217930794F028173907BCF01496A2
:101EA0008D919D910D90BC91A02D2481358146810D
:101EB0005781281739074A075B0718F4112341F0A7
:101EC0000AC082179307A407B50740F4112319F03D
:101ED00061E070E005C06FEF7FEF02C060E070E08E
:101EE000CB011F910895DF93CF9300D000D00F92C4
:101EF000CDB7DEB78A836B8319828A81282F30E0C1
:101F00003D832C838C819D8181309105D1F02C8182
:101F10003D81223031052CF48C819D81009761F048
:101F20001FC02C813D812230310581F08C819D8143
:101F30008330910581F014C0EAE3F0E08B81808367
:101F400011C0E7E3F0E08B8180830CC0E4E3F0E0B4
:101F50008B81808307C0E1E3F0E08B81808302C046
:101F600081E0898389810F900F900F900F900F90DF
:101F7000CF91DF910895DF93CF9300D000D00F92DF
:101F8000CDB7DEB78A836B8319828A81282F30E030
:101F90003D832C838C819D8181309105D1F02C81F2
:101FA0003D81223031052CF48C819D81009761F0B8
:101FB0001FC02C813D812230310581F08C819D81B3
:101FC0008330910581F014C0EBE3F0E08B818083D6
:101FD00011C0E8E3F0E08B8180830CC0E5E3F0E022
:101FE0008B81808307C0E2E3F0E08B81808302C0B5
:101FF00081E0898389810F900F900F900F900F904F
:10200000CF91DF910895DF93CF9300D000D000D01F
:10201000CDB7DEB78A837C836B8319828A81282FB0
:1020200030E03E832D838D819E8181309105E1F0EA
:102030002D813E81223031052CF48D819E810097C7
:1020400061F027C02D813E8122303105A1F08D81C4
:102050009E8183309105B1F01CC0E9E3F0E08081FE
:10206000EB81FC81808317C0E6E3F0E08081EB81A7
:10207000FC81808310C0E3E3F0E08081EB81FC8190
:10208000808309C0E0E3F0E08081EB81FC81808304
:1020900002C081E08983898126960FB6F894DEBF5D
:1020A0000FBECDBFCF91DF910895DF93CF93CDB712
:1020B000DEB728970FB6F894DEBF0FBECDBF8A8378
:1020C0006B834C8319828B81883008F0F3C08C813C
:1020D000882309F077C08A81282F30E038872F8342
:1020E0008F8198858130910559F12F813885223073
:1020F00031052CF48F819885009769F060C02F819D
:1021000038852230310589F18F819885833091059A
:1021100009F440C054C0AAE3B0E0EAE3F0E08081F3
:10212000482F8B81282F30E081E090E0022E02C002
:10213000880F991F0A94E2F7809584238C93BAC084
:10214000A7E3B0E0E7E3F0E08081482F8B81282F00
:1021500030E081E090E0022E02C0880F991F0A94BF
:10216000E2F7809584238C93A5C0A4E3B0E0E4E378
:10217000F0E08081482F8B81282F30E081E090E0D3
:10218000022E02C0880F991F0A94E2F780958423DB
:102190008C9390C0A1E3B0E0E1E3F0E08081482FB0
:1021A0008B81282F30E081E090E0022E02C0880F62
:1021B000991F0A94E2F7809584238C937BC081E079
:1021C000898378C08C81813009F072C08A81282F80
:1021D00030E03E832D838D819E818130910549F1D0
:1021E0002D813E81223031052CF48D819E81009716
:1021F00061F05BC02D813E812230310571F18D810E
:102200009E8183309105E9F150C0AAE3B0E0EAE392
:10221000F0E08081482F8B81282F30E081E090E032
:10222000022E02C0880F991F0A94E2F7842B8C9328
:1022300041C0A7E3B0E0E7E3F0E08081482F8B8165
:10224000282F30E081E090E0022E02C0880F991F15
:102250000A94E2F7842B8C932DC0A4E3B0E0E4E36E
:10226000F0E08081482F8B81282F30E081E090E0E2
:10227000022E02C0880F991F0A94E2F7842B8C93D8
:1022800019C0A1E3B0E0E1E3F0E08081482F8B8149
:10229000282F30E081E090E0022E02C0880F991FC5
:1022A0000A94E2F7842B8C9305C081E0898302C0F5
:1022B00081E08983898128960FB6F894DEBF0FBE2E
:1022C000CDBFCF91DF910895DF93CF93CDB7DEB728
:1022D00028970FB6F894DEBF0FBECDBF8A836B83FD
:1022E0004C8319828B81883008F0F3C08C8188235D
:1022F00009F077C08A81282F30E038872F838F81BB
:1023000098858130910559F12F813885223031052A
:102310002CF48F819885009769F060C02F813885F3
:102320002230310589F18F8198858330910509F438
:1023300040C054C0ABE3B0E0EBE3F0E08081482F55
:102340008B81282F30E081E090E0022E02C0880FC0
:10235000991F0A94E2F7809584238C93BAC0A8E36E
:10236000B0E0E8E3F0E08081482F8B81282F30E057
:1023700081E090E0022E02C0880F991F0A94E2F7D4
:10238000809584238C93A5C0A5E3B0E0E5E3F0E05D
:102390008081482F8B81282F30E081E090E0022E51
:1023A00002C0880F991F0A94E2F7809584238C93CA
:1023B00090C0A2E3B0E0E2E3F0E08081482F8B819F
:1023C000282F30E081E090E0022E02C0880F991F94
:1023D0000A94E2F7809584238C937BC081E0898303
:1023E00078C08C81813009F072C08A81282F30E05A
:1023F0003E832D838D819E818130910549F12D8110
:102400003E81223031052CF48D819E81009761F050
:102410005BC02D813E812230310571F18D819E811D
:1024200083309105E9F150C0ABE3B0E0EBE3F0E0BD
:102430008081482F8B81282F30E081E090E0022EB0
:1024400002C0880F991F0A94E2F7842B8C9341C035
:10245000A8E3B0E0E8E3F0E08081482F8B81282FEB
:1024600030E081E090E0022E02C0880F991F0A94AC
:10247000E2F7842B8C932DC0A5E3B0E0E5E3F0E018
:102480008081482F8B81282F30E081E090E0022E60
:1024900002C0880F991F0A94E2F7842B8C9319C00D
:1024A000A2E3B0E0E2E3F0E08081482F8B81282FA7
:1024B00030E081E090E0022E02C0880F991F0A945C
:1024C000E2F7842B8C9305C081E0898302C081E010
:1024D0008983898128960FB6F894DEBF0FBECDBFE1
:1024E000CF91DF910895DF93CF93CDB7DEB72797D4
:1024F0000FB6F894DEBF0FBECDBF8A836B835D83BA
:102500004C8319828A81282F30E03F832E834E81AD
:102510005F814130510559F18E819F818230910553
:1025200034F42E813F812115310569F05CC04E8164
:102530005F814230510579F18E819F818330910511
:1025400009F43DC050C0E9E3F0E08081282F30E07D
:102550008B81882F90E0A90102C0559547958A95F7
:10256000E2F7CA018170EC81FD8180833EC0E6E321
:10257000F0E08081282F30E08B81882F90E0A90146
:1025800002C0559547958A95E2F7CA018170EC81A2
:10259000FD8180832AC0E3E3F0E08081282F30E0D2
:1025A0008B81882F90E0A90102C0559547958A95A7
:1025B000E2F7CA018170EC81FD81808316C0E0E3FF
:1025C000F0E08081282F30E08B81882F90E0A901F6
:1025D00002C0559547958A95E2F7CA018170EC8152
:1025E000FD81808302C081E08983898127960FB6AF
:1025F000F894DEBF0FBECDBFCF91DF910895DF937A
:10260000CF9300D000D0CDB7DEB789836A838981AC
:10261000282F30E03C832B838B819C818130910576
:1026200049F12B813C81223031052CF48B819C8136
:10263000009761F05AC02B813C812230310571F145
:102640008B819C8183309105E9F14FC0ABE3B0E011
:10265000EBE3F0E08081482F8A81282F30E081E091
:1026600090E0022E02C0880F991F0A94E2F7842797
:102670008C933BC0A8E3B0E0E8E3F0E08081482F12
:102680008A81282F30E081E090E0022E02C0880F7E
:10269000991F0A94E2F784278C9327C0A5E3B0E042
:1026A000E5E3F0E08081482F8A81282F30E081E047
:1026B00090E0022E02C0880F991F0A94E2F7842747
:1026C0008C9313C0A2E3B0E0E2E3F0E08081482FF6
:1026D0008A81282F30E081E090E0022E02C0880F2E
:1026E000991F0A94E2F784278C930F900F900F9014
:1026F0000F90CF91DF910895DF93CF9300D00F9289
:10270000CDB7DEB78A836B83198208C08A8169815D
:102710004B810E94551089818F5F89838981843024
:10272000A8F30F900F900F90CF91DF910895DF9352
:10273000CF9300D00F92CDB7DEB78A836B8384E04E
:10274000898308C08A8169814B810E9455108981E3
:102750008F5F898389818830A8F30F900F900F9045
:10276000CF91DF910895DF93CF9300D000D0CDB704
:10277000DEB789836A838A818F708A838981282F53
:1027800030E03C832B838B819C818130910529F142
:102790002B813C81223031052CF48B819C81009768
:1027A00061F04AC02B813C812230310531F18B81AF
:1027B0009C818330910589F13FC0ABE3B0E0EBE34E
:1027C000F0E08081807F8C93ABE3B0E0EBE3F0E05E
:1027D00090818A81892B8C932FC0A8E3B0E0E8E335
:1027E000F0E08081807F8C93A8E3B0E0E8E3F0E044
:1027F00090818A81892B8C931FC0A5E3B0E0E5E32B
:10280000F0E08081807F8C93A5E3B0E0E5E3F0E029
:1028100090818A81892B8C930FC0A2E3B0E0E2E320
:10282000F0E08081807F8C93A2E3B0E0E2E3F0E00F
:1028300090818A81892B8C930F900F900F900F902D
:10284000CF91DF910895DF93CF9300D000D0CDB723
:10285000DEB789836A838A81807F8A838981282F72
:1028600030E03C832B838B819C818130910529F161
:102870002B813C81223031052CF48B819C81009787
:1028800061F04AC02B813C812230310531F18B81CE
:102890009C818330910589F13FC0ABE3B0E0EBE36D
:1028A000F0E080818F708C93ABE3B0E0EBE3F0E07D
:1028B00090818A81892B8C932FC0A8E3B0E0E8E354
:1028C000F0E080818F708C93A8E3B0E0E8E3F0E063
:1028D00090818A81892B8C931FC0A5E3B0E0E5E34A
:1028E000F0E080818F708C93A5E3B0E0E5E3F0E049
:1028F00090818A81892B8C930FC0A2E3B0E0E2E340
:10290000F0E080818F708C93A2E3B0E0E2E3F0E02E
:1029100090818A81892B8C930F900F900F900F904C
:10292000CF91DF9108950F931F93DF93CF93CDB78E
:10293000DEB7C654D0400FB6F894DEBF0FBECDBF91
:10294000FE01ED5BFF4F80E090E0A6E9B3E48083F9
:102950009183A283B3838E01015C1F4FFE01ED5B67
:10296000FF4F608171818281938120E030E04AEFE6
:1029700054E40E94420BDC01CB01F8018083918377
:10298000A283B383FE01FF9660817181828193816E
:1029900020E030E040E85FE30E949C0C88232CF4A8
:1029A00081E090E09EAF8DAF46C0FE01FF96608152
:1029B00071818281938120E03FEF4FE757E40E94CD
:1029C0003C0C181664F5FE01ED5BFF4F60817181D0
:1029D0008281938120E030E040E251E40E94420B8A
:1029E000DC01CB01BC01CD010E944401DC01CB0123
:1029F0009EAF8DAF0FC088EC90E09CAF8BAF8BADDE
:102A00009CAD0197F1F79CAF8BAF8DAD9EAD01975B
:102A10009EAF8DAF8DAD9EAD009769F716C0FE01DC
:102A2000FF9660817181828193810E944401DC0163
:102A3000CB019EAF8DAF8DAD9EAD9AAF89AF89AD05
:102A40009AAD0197F1F79AAF89AF81E060E041E07C
:102A50000E94551081E061E041E00E94551081E044
:102A600062E041E00E94551080E06FEF0E94730F1A
:102A700088E390E00E941C1780E090E0A0E8BFE3AC
:102A80008DAB9EABAFABB8AF6DA97EA98FA998AD4A
:102A900020E030E04AEF54E40E94420BDC01CB011D
:102AA00089AB9AABABABBCAB69A97AA98BA99CA942
:102AB00020E030E040E85FE30E949C0C88232CF487
:102AC00081E090E098AB8FA73FC069A97AA98BA954
:102AD0009CA920E03FEF4FE757E40E943C0C1816FA
:102AE0004CF56DA97EA98FA998AD20E030E040E2B9
:102AF00051E40E94420BDC01CB01BC01CD010E94DC
:102B00004401DC01CB0198AB8FA70FC088EC90E0AB
:102B10009EA78DA78DA59EA50197F1F79EA78DA7CE
:102B20008FA598A9019798AB8FA78FA598A9009713
:102B300069F714C069A97AA98BA99CA90E944401CC
:102B4000DC01CB0198AB8FA78FA598A99CA78BA779
:102B50008BA59CA50197F1F79CA78BA78EE090E031
:102B60000E941C1780E090E0A0E8BFE38FA398A725
:102B7000A9A7BAA76FA178A589A59AA520E030E0FA
:102B80004AEF54E40E94420BDC01CB018BA39CA3CF
:102B9000ADA3BEA36BA17CA18DA19EA120E030E0DE
:102BA00040E85FE30E949C0C88232CF481E090E0D5
:102BB0009AA389A33FC06BA17CA18DA19EA120E017
:102BC0003FEF4FE757E40E943C0C18164CF56FA1FD
:102BD00078A589A59AA520E030E040E251E40E9462
:102BE000420BDC01CB01BC01CD010E944401DC01A0
:102BF000CB019AA389A30FC088EC90E098A38F8F94
:102C00008F8D98A10197F1F798A38F8F89A19AA131
:102C100001979AA389A389A19AA1009769F714C083
:102C20006BA17CA18DA19EA10E944401DC01CB017E
:102C30009AA389A389A19AA19E8F8D8F8D8D9E8D38
:102C40000197F1F79E8F8D8F81E090E00E941C1715
:102C500080E090E0A0E2B1E4898F9A8FAB8FBC8FC7
:102C6000698D7A8D8B8D9C8D20E030E04AEF54E4A5
:102C70000E94420BDC01CB018D8B9E8BAF8BB88FFA
:102C80006D897E898F89988D20E030E040E85FE390
:102C90000E949C0C88232CF481E090E09C8B8B8B11
:102CA0003FC06D897E898F89988D20E03FEF4FE787
:102CB00057E40E943C0C18164CF5698D7A8D8B8D6B
:102CC0009C8D20E030E040E251E40E94420BDC01A8
:102CD000CB01BC01CD010E944401DC01CB019C8BE6
:102CE0008B8B0FC088EC90E09A8B898B89899A89AD
:102CF0000197F1F79A8B898B8B899C8901979C8B23
:102D00008B8B8B899C89009769F714C06D897E89AC
:102D10008F89988D0E944401DC01CB019C8B8B8BA9
:102D20008B899C89988B8F878F8598890197F1F77C
:102D3000988B8F8786E090E00E941C1780E090E0DF
:102D4000A0E8BFE38B879C87AD87BE876B857C85BA
:102D50008D859E8520E030E04AEF54E40E94420BCE
:102D6000DC01CB018F839887A987BA876F8178852B
:102D700089859A8520E030E040E85FE30E949C0C62
:102D800088232CF481E090E09E838D833FC06F8187
:102D9000788589859A8520E03FEF4FE757E40E94C8
:102DA0003C0C18164CF56B857C858D859E8520E046
:102DB00030E040E251E40E94420BDC01CB01BC0157
:102DC000CD010E944401DC01CB019E838D830FC0A5
:102DD00088EC90E09C838B838B819C810197F1F739
:102DE0009C838B838D819E8101979E838D838D81B2
:102DF0009E81009769F714C06F81788589859A85CF
:102E00000E944401DC01CB019E838D838D819E81D4
:102E10009A83898389819A810197F1F79A838983BB
:102E2000CA5BDF4F0FB6F894DEBF0FBECDBFCF91A8
:102E3000DF911F910F910895DF93CF930F92CDB73C
:102E4000DEB7898380E069810E94BB0F81E061E089
:102E500040E00E94641181E060E040E00E94641163
:102E60000E94AE1A0F90CF91DF910895DF93CF9318
:102E70000F92CDB7DEB7898380E069810E94BB0FD6
:102E800081E060E041E00E94641181E061E040E0A7
:102E90000E9464110E94AE1A0F90CF91DF910895A5
:102EA000DF93CF93CDB7DEB72E970FB6F894DEBF82
:102EB0000FBECDBF81E00E941C1780E090E0A0E231
:102EC000B1E48B879C87AD87BE876B857C858D85BC
:102ED0009E8520E030E04AEF54E40E94420BDC0182
:102EE000CB018F839887A987BA876F817885898579
:102EF0009A8520E030E040E85FE30E949C0C882344
:102F00002CF481E090E09E838D833FC06F817885B3
:102F100089859A8520E03FEF4FE757E40E943C0CFB
:102F200018164CF56B857C858D859E8520E030E0FC
:102F300040E251E40E94420BDC01CB01BC01CD0117
:102F40000E944401DC01CB019E838D830FC088EC7D
:102F500090E09C838B838B819C810197F1F79C830C
:102F60008B838D819E8101979E838D838D819E8130
:102F7000009769F714C06F81788589859A850E94CA
:102F80004401DC01CB019E838D838D819E819A83D8
:102F9000898389819A810197F1F79A8389832E9693
:102FA0000FB6F894DEBF0FBECDBFCF91DF9108956D
:102FB000DF93CF93CDB7DEB72E970FB6F894DEBF71
:102FC0000FBECDBF80E10E941C1780E090E0A0E220
:102FD000B1E48B879C87AD87BE876B857C858D85AB
:102FE0009E8520E030E04AEF54E40E94420BDC0171
:102FF000CB018F839887A987BA876F817885898568
:103000009A8520E030E040E85FE30E949C0C882332
:103010002CF481E090E09E838D833FC06F817885A2
:1030200089859A8520E03FEF4FE757E40E943C0CEA
:1030300018164CF56B857C858D859E8520E030E0EB
:1030400040E251E40E94420BDC01CB01BC01CD0106
:103050000E944401DC01CB019E838D830FC088EC6C
:1030600090E09C838B838B819C810197F1F79C83FB
:103070008B838D819E8101979E838D838D819E811F
:10308000009769F714C06F81788589859A850E94B9
:103090004401DC01CB019E838D838D819E819A83C7
:1030A000898389819A810197F1F79A8389832E9682
:1030B0000FB6F894DEBF0FBECDBFCF91DF9108955C
:1030C000DF93CF93CDB7DEB72E970FB6F894DEBF60
:1030D0000FBECDBF84E10E941C1780E090E0A0E20B
:1030E000B1E48B879C87AD87BE876B857C858D859A
:1030F0009E8520E030E04AEF54E40E94420BDC0160
:10310000CB018F839887A987BA876F817885898556
:103110009A8520E030E040E85FE30E949C0C882321
:103120002CF481E090E09E838D833FC06F81788591
:1031300089859A8520E03FEF4FE757E40E943C0CD9
:1031400018164CF56B857C858D859E8520E030E0DA
:1031500040E251E40E94420BDC01CB01BC01CD01F5
:103160000E944401DC01CB019E838D830FC088EC5B
:1031700090E09C838B838B819C810197F1F79C83EA
:103180008B838D819E8101979E838D838D819E810E
:10319000009769F714C06F81788589859A850E94A8
:1031A0004401DC01CB019E838D838D819E819A83B6
:1031B000898389819A810197F1F79A8389832E9671
:1031C0000FB6F894DEBF0FBECDBFCF91DF9108954B
:1031D000DF93CF93CDB7DEB761970FB6F894DEBF1C
:1031E0000FBECDBF888B698B8889882349F0888979
:1031F000833030F48989882319F08989813118F066
:1032000080E88F870DC08889813021F489898158B1
:103210008F8706C08889823019F4898981548F8705
:103220008F850E941C1780E090E0A0E8BFE38B87A9
:103230009C87AD87BE876B857C858D859E8520E0CC
:1032400030E04AEF54E40E94420BDC01CB018F8353
:103250009887A987BA876F81788589859A8520E0C4
:1032600030E040E85FE30E949C0C88232CF481E06E
:1032700090E09E838D833FC06F81788589859A8594
:1032800020E03FEF4FE757E40E943C0C18164CF546
:103290006B857C858D859E8520E030E040E251E4A1
:1032A0000E94420BDC01CB01BC01CD010E94440114
:1032B000DC01CB019E838D830FC088EC90E09C8362
:1032C0008B838B819C810197F1F79C838B838D810C
:1032D0009E8101979E838D838D819E81009769F7E2
:1032E00014C06F81788589859A850E944401DC012C
:1032F000CB019E838D838D819E819A838983898171
:103300009A810197F1F79A83898361960FB6F894B1
:10331000DEBF0FBECDBFCF91DF910895DF93CF9376
:1033200000D0CDB7DEB79A8389830AC0E981FA81DC
:1033300080810E94361789819A8101969A838983B8
:10334000E981FA818081882389F70F900F90CF91CE
:10335000DF910895DF93CF93CDB7DEB72E970FB6E9
:10336000F894DEBF0FBECDBF6B877C878D879E87AD
:103370008DB79EB708970FB6F8949EBF0FBE8DBF4E
:10338000EDB7FEB73196CE0101969183808380E63A
:1033900090E0938382838B859C85AD85BE858483F5
:1033A0009583A683B7830E9405288DB79EB708969C
:1033B0000FB6F8949EBF0FBE8DBFCE0101960E943E
:1033C0008E192E960FB6F894DEBF0FBECDBFCF91EB
:1033D000DF910895DF93CF93CDB7DEB7AC970FB6EB
:1033E000F894DEBF0FBECDBF6BA37CA38DA39EA3BD
:1033F0006BA17CA18DA19EA120E030E040E050E0D7
:103400000E949C0C88232CF424E630E03CA72BA7D8
:1034100004C046E650E05CA74BA78BA59CA59A8B01
:10342000898B6BA17CA18DA19EA120E030E040E0C2
:1034300050E00E949C0C882364F48BA19CA1ADA158
:10344000BEA19C01AD0150582FA338A749A75AA788
:1034500008C08BA19CA1ADA1BEA18FA398A7A9A7CD
:10346000BAA72FA138A549A55AA52D873E874F8712
:10347000588B6D857E858F8598890E942A0DDC0189
:10348000CB0189879A87AB87BC8769857A858B85CD
:103490009C850E94CC0C9B01AC016D857E858F853F
:1034A00098890E94E40ADC01CB018D839E83AF835F
:1034B000B8876D817E818F81988520E030E44CE172
:1034C00056E40E94420BDC01CB01BC01CD010E94FD
:1034D0002A0DDC01CB0189839A83AB83BC834DB772
:1034E0005EB74E5050400FB6F8945EBF0FBE4DBF52
:1034F000EDB7FEB73196CE0143969183808387E680
:1035000090E09383828389899A89958384838985CE
:103510009A85AB85BC8586839783A087B18789818F
:103520009A81AB81BC8182879387A487B5870E94EB
:1035300005288DB79EB70E960FB6F8949EBF0FBEA6
:103540008DBFCE0143960E948E19AC960FB6F894AB
:10355000DEBF0FBECDBFCF91DF910895DF93CF9334
:10356000CDB7DEB760970FB6F894DEBF0FBECDBF04
:1035700081E062E041E00E94641180E090E0A0E020
:10358000B0E48B879C87AD87BE876B857C858D85F6
:103590009E8520E030E04AEF54E40E94420BDC01BB
:1035A000CB018F839887A987BA876F8178858985B2
:1035B0009A8520E030E040E85FE30E949C0C88237D
:1035C0002CF481E090E09E838D833FC06F817885ED
:1035D00089859A8520E03FEF4FE757E40E943C0C35
:1035E00018164CF56B857C858D859E8520E030E036
:1035F00040E251E40E94420BDC01CB01BC01CD0151
:103600000E944401DC01CB019E838D830FC088ECB6
:1036100090E09C838B838B819C810197F1F79C8345
:103620008B838D819E8101979E838D838D819E8169
:10363000009769F714C06F81788589859A850E9403
:103640004401DC01CB019E838D838D819E819A8311
:10365000898389819A810197F1F79A83898381E02F
:1036600062E040E00E94641160960FB6F894DEBFFD
:103670000FBECDBFCF91DF910895DF93CF9300D0E0
:10368000CDB7DEB71A8231C08A81882F90E0880FCB
:10369000991FFC01E256FE4F20818A81882F90E01D
:1036A000880F991FFC01E156FE4F9081822F692FF0
:1036B00041E00E9455108A81882F90E0880F991F61
:1036C000FC01E256FE4F20818A81882F90E0880F0E
:1036D000991FFC01E156FE4F9081822F692F41E036
:1036E0000E9464118A818F5F8A838A81843060F2AC
:1036F000198231C08981882F90E0880F991FFC01C1
:10370000EA56FE4F20818981882F90E0880F991F0B
:10371000FC01E956FE4F9081822F692F40E00E9404
:1037200055108981882F90E0880F991FFC01EA5677
:10373000FE4F20818981882F90E0880F991FFC011E
:10374000E956FE4F9081822F692F41E00E9464115B
:1037500089818F5F89838981843060F20F900F9017
:10376000CF91DF910895DF93CF93CDB7DEB7629706
:103770000FB6F894DEBF0FBECDBF8FEF898BFFC0B1
:10378000188AF9C08889882F90E0880F991FFC015A
:10379000E256FE4F20818889882F90E0880F991F7C
:1037A000FC01E156FE4F9081822F692F40E00E947C
:1037B00064111F86C2C08F85882F90E0880F991FE3
:1037C000FC01EA56FE4F40818F85882F90E0880FDC
:1037D000991FFC01E956FE4F90819E012E5E3F4FDE
:1037E000842F692FA9010E9473128A89882309F006
:1037F000A1C080E090E0A8E4B2E48B879C87AD870D
:10380000BE876B857C858D859E8520E030E04AEF04
:1038100054E40E94420BDC01CB018F839887A98777
:10382000BA876F81788589859A8520E030E040E805
:103830005FE30E949C0C88232CF481E090E09E833F
:103840008D833FC06F81788589859A8520E03FEF21
:103850004FE757E40E943C0C18164CF56B857C85AD
:103860008D859E8520E030E040E251E40E94420BCD
:10387000DC01CB01BC01CD010E944401DC01CB0184
:103880009E838D830FC088EC90E09C838B838B811B
:103890009C810197F1F79C838B838D819E81019799
:1038A0009E838D838D819E81009769F714C06F81FF
:1038B000788589859A850E944401DC01CB019E832D
:1038C0008D838D819E819A83898389819A810197D5
:1038D000F1F79A8389838F85882F90E0880F991F4D
:1038E000FC01EA56FE4F40818F85882F90E0880FBB
:1038F000991FFC01E956FE4F90819E012E5E3F4FBD
:10390000842F692FA9010E9473128A89882391F458
:103910008F85482F50E08889282F30E0CA01880F12
:10392000991F880F991F820F931FFC01EA57FE4FC2
:103930008081898B8F858F5F8F878F85843008F496
:103940003ACF8889882F90E0880F991FFC01E256B2
:10395000FE4F20818889882F90E0880F991FFC01F5
:10396000E156FE4F9081822F692F41E00E94641141
:1039700088898F5F888B8889843008F403CF898990
:103980008F3F09F4FDCE898962960FB6F894DEBFA9
:103990000FBECDBFCF91DF910895DF93CF93CDB709
:1039A000DEB72F970FB6F894DEBF0FBECDBF1F86D0
:1039B0000E94B31B8F879DC08F85813429F40E949C
:1039C000FC2681E00E941C178F85882309F48EC095
:1039D0008F85813409F48AC08091B201882F90E0EC
:1039E000FC01EC54FE4F8F8580838091B201882FBB
:1039F00090E0FC01EC54FE4F80810E9436178091CC
:103A0000B2018F5F8093B20180E090E0A8E4B2E45D
:103A10008B879C87AD87BE876B857C858D859E85D2
:103A200020E030E04AEF54E40E94420BDC01CB017D
:103A30008F839887A987BA876F81788589859A85CA
:103A400020E030E040E85FE30E949C0C88232CF4E7
:103A500081E090E09E838D833FC06F81788589856A
:103A60009A8520E03FEF4FE757E40E943C0C181680
:103A70004CF56B857C858D859E8520E030E040E2AD
:103A800051E40E94420BDC01CB01BC01CD010E943C
:103A90004401DC01CB019E838D830FC088EC90E054
:103AA0009C838B838B819C810197F1F79C838B8313
:103AB0008D819E8101979E838D838D819E8100974C
:103AC00069F714C06F81788589859A850E944401C1
:103AD000DC01CB019E838D838D819E819A838983B6
:103AE00089819A810197F1F79A8389830E94B31B98
:103AF0008F878F858D3309F05FCF8091B201882F3A
:103B000090E0FC01EC54FE4F8DE380838091B20184
:103B1000882F90E0FC01EC54FE4F80810E94361704
:103B20008091B2018F5F8093B2018091B201882FA2
:103B300090E0FC01EC54FE4F108282E02F960FB60D
:103B4000F894DEBF0FBECDBFCF91DF910895DF9314
:103B5000CF93CDB7DEB72E970FB6F894DEBF0FBE6A
:103B6000CDBF9E878D8719861A861B861C8681E0AD
:103B700090E0A0E0B0E08D839E83AF83B8878FEFA5
:103B80009FEFAFEFBFEF89839A83AB83BC83ED8553
:103B9000FE8580818D3291F58FEF9FEFAFEFBFEF04
:103BA0008D839E83AF83B88719821A821B821C8201
:103BB00025C089859A85AB85BC852AE030E040E048
:103BC00050E0BC01CD010E948D27AB01BC012981D1
:103BD0003A818D859E85FC01E20FF31F8081882F3D
:103BE00090E0C097AA2797FDA095BA2F840F951F44
:103BF000A61FB71F89879A87AB87BC8789819A815F
:103C0000AB81BC810196A11DB11D89839A83AB83D1
:103C1000BC8329813A818D859E85FC01E20FF31FCB
:103C20008081882331F689859A85AB85BC852D8175
:103C30003E814F815885BC01CD010E948D27DC015A
:103C4000CB0189879A87AB87BC8789859A85AB85A5
:103C5000BC85BC01CD012E960FB6F894DEBF0FBE19
:103C6000CDBFCF91DF910895DF93CF9300D00F9216
:103C7000CDB7DEB79B838A8319820CC08981282F38
:103C800030E08A819B81FC01E20FF31F1082898161
:103C90008F5F89838981282F30E08A819B81FC0195
:103CA000E20FF31F8081882349F70F900F900F9048
:103CB000CF91DF9108958F929F92AF92BF92CF9252
:103CC000DF92EF92FF920F931F93DF93CF93CDB7C5
:103CD000DEB7A1970FB6F894DEBF0FBECDBF80E16F
:103CE000FE017196DF01982F1D929A95E9F7188AC7
:103CF0001F8681E08093A60181E08093B3018091CB
:103D0000B4018A3269F08091B4018B3249F080911C
:103D1000B4018D3229F08091B4018F3209F055C180
:103D20008091B4018D3209F450C18091B4018B327D
:103D300009F44BC181E790E00E948E1980E090E089
:103D4000A8ECB2E48B879C87AD87BE876B857C85AA
:103D50008D859E8520E030E04AEF54E40E94420BBE
:103D6000DC01CB018F839887A987BA876F8178851B
:103D700089859A8520E030E040E85FE30E949C0C52
:103D800088232CF481E090E09E838D833FC06F8177
:103D9000788589859A8520E03FEF4FE757E40E94B8
:103DA0003C0C18164CF56B857C858D859E8520E036
:103DB00030E040E251E40E94420BDC01CB01BC0147
:103DC000CD010E944401DC01CB019E838D830FC095
:103DD00088EC90E09C838B838B819C810197F1F729
:103DE0009C838B838D819E8101979E838D838D81A2
:103DF0009E81009769F714C06F81788589859A85BF
:103E00000E944401DC01CB019E838D838D819E81C4
:103E10009A83898389819A810197F1F79A838983AB
:103E200019A2DAC08F85882F90E0FC01EC54FE4F78
:103E30008081803348F08F85882F90E0FC01EC541E
:103E4000FE4F80818A3388F18F85882F90E0FC01B6
:103E5000EC54FE4F80818D32E9F58F85882F90E0FC
:103E60000197FC01EC54FE4F80818A32F1F08F857E
:103E7000882F90E00197FC01EC54FE4F80818B323B
:103E8000A1F08F85882F90E00197FC01EC54FE4F44
:103E900080818D3251F08F85882F90E00197FC0151
:103EA000EC54FE4F80818F32A9F48889482F50E06E
:103EB0008F85882F90E0FC01EC54FE4F8081282FE5
:103EC000CE014196FC01E40FF51F208388898F5FA6
:103ED000888B73C08F85882F90E0FC01EC54FE4FD7
:103EE00080818A3229F18F85882F90E0FC01EC5483
:103EF000FE4F80818B32E1F08F85882F90E0FC01AE
:103F0000EC54FE4F80818D3299F08F85882F90E0A0
:103F1000FC01EC54FE4F80818F3251F08F85882F49
:103F200090E0FC01EC54FE4F80818D3309F045C0D8
:103F30008091B101282F30E08F85882F90E0FC011F
:103F4000EC54FE4F8081F901EC5DFD4F8083809140
:103F5000B1018F5F8093B1018091B001882E9924C7
:103F6000CE0141960E94A71D5B016C01860175017F
:103F7000110FEE08FE2C8701A60195016E2D7E2DF6
:103F80008E2D9E2DF401EE0FFF1FEE0FFF1FEE0F83
:103F9000FF1FEC53FE4F208331834283538364839E
:103FA0007583868397838091B0018F5F8093B00182
:103FB000CE0141960E94341E188A8F858F5F8F87AD
:103FC0008091B20181508093B2018091B201882327
:103FD00009F028CFA3E0A9A389A1A1960FB6F89470
:103FE000DEBF0FBECDBFCF91DF911F910F91FF902C
:103FF000EF90DF90CF90BF90AF909F908F900895FB
:10400000DF93CF9300D000D0CDB7DEB79B838A83F8
:104010006C838C8189838981882F90E09C01220F99
:10402000331F220F331F220F331F8A819B81DC0134
:10403000A20FB31F8981882F90E001969C01220F67
:10404000331F220F331F220F331F8A819B81FC01F4
:10405000E20FF31F20813181428153816481758198
:10406000868197812C9311963C93119712964C93CD
:10407000129713965C93139714966C931497159656
:104080007C93159716968C93169717969C93179773
:104090008981882F90E09C01220F331F220F331F4C
:1040A000220F331F8A819B81FC01E20FF31F2081C5
:1040B0003181428153816481758186819781E22FAC
:1040C000E32BE42BE52BE62BE72BE82BE92BEE2368
:1040D00021F089818F5F89839ECF0F900F900F9081
:1040E0000F90CF91DF910895DF93CF9300D000D050
:1040F000CDB7DEB79B838A836C838C81898389816A
:10410000282F30E08A819B81DC01A20FB31F8981B7
:10411000882F90E09C012F5F3F4F8A819B81FC019B
:10412000E20FF31F80818C938981282F30E08A81F0
:104130009B81FC01E20FF31F8081882321F089819C
:104140008F5F8983DCCF0F900F900F900F90CF91EE
:10415000DF9108958F92AF92BF92CF92DF92EF924C
:10416000FF920F931F93DF93CF93CDB7DEB7C9575D
:10417000D0400FB6F894DEBF0FBECDBF29873A8777
:104180004B875C876D877E878F87988BA98ABA8AD1
:10419000CB8ADC8AED8AFE8A0F8B188F898E198272
:1041A0001A821B821C821D821E821F821886898DA4
:1041B0008D3309F4EDC3898D282F30E03BA32AA36A
:1041C0008AA19BA18B329105C9F02AA13BA12C3277
:1041D00031053CF48AA19BA18A32910509F482C37E
:1041E000C6C32AA13BA12D32310509F461C18AA1C0
:1041F0009BA18F32910509F498C3B9C399859CA3FB
:104200002A852DA33B853EA38C858FA39D8598A7EA
:104210002E8529A73F853AA788898BA799899CA7CE
:104220002A892DA73B893EA78C898FA79D8998ABAA
:104230002E8929AB3F893AAB888D8BAB9CA12CA5ED
:10424000920F9CAB31E03CAF8CA99CA1891708F080
:104250001CAE2DA13DA5230F2DAB81E08DAF9DA9F7
:104260002DA1921708F01DAE3CAD8DA9380F3EAFC1
:1042700091E09FAF2EAD3DA9231708F01FAE8DAD85
:104280009FAD892B8DAF2EAD2DAB3EA18EA5380FE6
:104290003EAB91E021969FAF21972EA93EA1231717
:1042A00018F021961FAE21978DAD9EA9890F2296F9
:1042B0008FAF229721E023962FAF239722963FAD11
:1042C00022978EA9381718F023961FAE23972196B0
:1042D0009FAD219723962FAD2397922B21969FAFC9
:1042E000219722963FAD22973EAB8FA19FA5890FC4
:1042F0008FAB21E024962FAF24973FA98FA13817C9
:1043000018F024961FAE249721969FAD21972FA9D0
:10431000920F25969FAF259731E026963FAF2697BF
:1043200025968FAD25979FA9891718F026961FAE61
:10433000269724962FAD249726963FAD2697232BBC
:1043400024962FAF249725968FAD25978FAB98A5F0
:1043500028A9920F98AF31E027963FAF279788ADF5
:1043600098A5891718F027961FAE279724962FAD8A
:10437000249738AD230F28962FAF289781E02996F0
:104380008FAF299728969FAD289728AD921718F0E0
:1043900029961FAE299727963FAD279729968FAD6F
:1043A0002997382B27963FAF279728969FAD2897B8
:1043B00098AF29A539A9230F29AF81E02A968FAF9D
:1043C0002A9799AD29A5921718F02A961FAE2A9719
:1043D00027963FAD279789AD380F2B963FAF2B9788
:1043E00091E02C969FAF2C972B962FAD2B9739AD44
:1043F000231718F02C961FAE2C972A968FAD2A976C
:104400002C969FAD2C97892B2A968FAF2A972B96A7
:104410002FAD2B9729AF3AA58AA9380F3AAF91E073
:104420002D969FAF2D972AAD3AA5231718F02D96FC
:104430001FAE2D972A968FAD2A979AAD890F2E968B
:104440008FAF2E9721E02F962FAF2F972E963FAD4F
:104450002E978AAD381718F02F961FAE2F972D96EE
:104460009FAD2D972F962FAD2F97922B2D969FAF07
:104470002D972E963FAD2E973AAF8BA59BA9890F0E
:104480008BAF2D968FAD2D972BAD820F8BAF3CA9A7
:1044900039838DA98A839EA99B832FA92C8338AD4C
:1044A0003D8389AD8E839AAD9F832BAD28875FC2F4
:1044B000398560963FAF60978A8561968FAF619727
:1044C0009B8562969FAF62972C8563962FAF63970B
:1044D0003D8564963FAF64978E8565968FAF6597EF
:1044E0009F8566969FAF6697288967962FAF6797D7
:1044F000398968963FAF68978A8969968FAF6997BF
:104500009B896A969FAF6A972C896B962FAF6B97A2
:104510003D896C963FAF6C978E896D968FAF6D9786
:104520009F896E969FAF6E97288D6F962FAF6F976E
:1045300060963FAD609768968FAD6897381BA096E0
:104540003FAFA09791E0A8969FAFA897A0962FADF8
:10455000A09760963FAD6097321718F0A8961FAEEF
:10456000A89761968FAD619769969FAD6997891BF2
:10457000A1968FAFA19721E0A9962FAFA997A196F9
:104580003FADA19761968FAD6197831718F0A996FB
:104590001FAEA997A1969FADA197A8962FADA897FA
:1045A000921BAA969FAFAA9731E0AB963FAFAB970D
:1045B000AA968FADAA97A1969FADA197981718F0CC
:1045C000AB961FAEAB97A9962FADA997AB963FAD13
:1045D000AB97232BA9962FAFA997AA968FADAA9731
:1045E000A1968FAFA19762969FAD62976A962FAD05
:1045F0006A97921BA2969FAFA29731E0AC963FAF0D
:10460000AC97A2968FADA29762969FAD62979817CE
:1046100018F0AC961FAEAC97A2962FADA297A996B4
:104620003FADA997231BAD962FAFAD9781E0AE9616
:104630008FAFAE97AD969FADAD97A2962FADA297D7
:10464000291718F0AE961FAEAE97AC963FADAC975B
:10465000AE968FADAE97382BAC963FAFAC97AD967C
:104660009FADAD97A2969FAFA29763962FAD63972C
:104670006B963FAD6B97231BA3962FAFA39781E05B
:10468000AF968FAFAF97A3969FADA39763962FADCD
:104690006397291718F0AF961FAEAF97A3963FAD5B
:1046A000A397AC968FADAC97381BE0963FAFE097E1
:1046B00091E0E1969FAFE197E0962FADE097A3964A
:1046C0003FADA397321718F0E1961FAEE197AF9672
:1046D0008FADAF97E1969FADE197892BAF968FAFE6
:1046E000AF97E0962FADE097A3962FAFA397649670
:1046F0003FAD64976C968FAD6C97381BA4963FAF17
:10470000A49791E0E2969FAFE297A4962FADA4976D
:1047100064963FAD6497321718F0E2961FAEE297A9
:10472000A4968FADA497AF969FADAF97891BE396E4
:104730008FAFE39721E0E4962FAFE497E3963FAD88
:10474000E397A4968FADA497831718F0E4961FAE55
:10475000E497E2969FADE297E4962FADE497922B13
:10476000E2969FAFE297E3963FADE397A4963FAF03
:10477000A49765968FAD65976D969FAD6D97891BD4
:10478000A5968FAFA59721E0E5962FAFE597A59663
:104790003FADA59765968FAD6597831718F0E596A1
:1047A0001FAEE597A5969FADA597E2962FADE29730
:1047B000921BE6969FAFE69731E0E7963FAFE7970B
:1047C000E6968FADE697A5969FADA597981718F03A
:1047D000E7961FAEE797E5962FADE597E7963FADD5
:1047E000E797232BE5962FAFE597E6968FADE697F3
:1047F000A5968FAFA59766969FAD66976E962FADDF
:104800006E97921BA6969FAFA69731E0E8963FAFB2
:10481000E897A6968FADA69766969FAD6697981770
:1048200018F0E8961FAEE897A6962FADA697E596E6
:104830003FADE597231BE9962FAFE99781E0EA9614
:104840008FAFEA97E9969FADE997A6962FADA69709
:10485000291718F0EA961FAEEA97E8963FADE89759
:10486000EA968FADEA97382BE8963FAFE897E9963E
:104870009FADE997A6969FAFA69767962FAD6797CE
:104880006F963FAD6F97231BA7962FAFA797A7965D
:104890008FADA797E8969FADE897891BA7968FAF36
:1048A000A797A0962FADA0972983A1963FADA1977A
:1048B0003A83A2968FADA2978B83A3969FADA397C1
:1048C0009C83A4962FADA4972D83A5963FADA59765
:1048D0003E83A6968FADA6978F83A7969FADA79789
:1048E000988745C029853A854B855C856D857E8591
:1048F0008F859889A988BA88CB88DC88ED88FE885E
:104900000F89188D0E944900A22EB32EC42ED52ED9
:10491000E62EF72E082F192FA982BA82CB82DC82CD
:10492000ED82FE820F83188722C029853A854B8548
:104930005C856D857E858F859889A988BA88CB88A6
:10494000DC88ED88FE880F89188D0E947001A22EE8
:10495000B32EC42ED52EE62EF72E082F192FA9829E
:10496000BA82CB82DC82ED82FE820F831887298196
:104970002A8F3A813B8F8B818C8F9C819D8F2D81DB
:104980002E8F3E813F8F8F8188A3988599A308C081
:104990001A8E1B8E1C8E1D8E1E8E1F8E18A219A2A3
:1049A000AA8CBB8CCC8CDD8CEE8CFF8C08A119A161
:1049B0002A2D3B2D4C2D5D2D6E2D7F2D802F912F7F
:1049C000C758DF4F0FB6F894DEBF0FBECDBFCF91F3
:1049D000DF911F910F91FF90EF90DF90CF90BF90EC
:1049E000AF908F9008952F923F924F925F926F9267
:1049F0007F928F929F92AF92BF92CF92DF92EF926F
:104A0000FF920F931F93DF93CF9300D000D000D07D
:104A1000CDB7DEB71A82F9C08A81882F90E0FC01F9
:104A2000EC5DFD4F80818A3209F071C08A81282FA8
:104A300030E03E832D838A81882F90E0880F991F74
:104A4000880F991F880F991FFC01EC53FE4FA0801F
:104A5000B180C280D380E480F580068117818A818D
:104A6000882F90E00196880F991F880F991F880F53
:104A7000991FFC01EC53FE4F20803180428053800F
:104A800064807580868097802A2D3B2D4C2D5D2D6E
:104A90006E2D7F2D802F912FA22CB32CC42CD52CC2
:104AA000E62CF72C082D192D0E944900A22EB32EBA
:104AB000C42ED52EE62EF72E082F192F2A2D3B2D8A
:104AC0004C2D5D2D6E2D7F2D802F912FED81FE8140
:104AD000EE0FFF1FEE0FFF1FEE0FFF1FEC53FE4FF9
:104AE00020833183428353836483758386839783D2
:104AF00024EC31E08A81482F4F5FC901642F0E9466
:104B0000002084E292E06A810E9474207EC08A8143
:104B1000882F90E0FC01EC5DFD4F80818F3209F021
:104B200071C08A81282F30E03C832B838A81882FB3
:104B300090E0880F991F880F991F880F991FFC011B
:104B4000EC53FE4FA080B180C280D380E480F5801A
:104B5000068117818A81882F90E00196880F991F1E
:104B6000880F991F880F991FFC01EC53FE4F20807E
:104B700031804280538064807580868097802A2DA2
:104B80003B2D4C2D5D2D6E2D7F2D802F912FA22C36
:104B9000B32CC42CD52CE62CF72C082D192D0E94F3
:104BA0007001A22EB32EC42ED52EE62EF72E082F7E
:104BB000192F2A2D3B2D4C2D5D2D6E2D7F2D802FF5
:104BC000912FEB81FC81EE0FFF1FEE0FFF1FEE0F09
:104BD000FF1FEC53FE4F2083318342835383648352
:104BE00075838683978324EC31E08A81482F4F5F59
:104BF000C901642F0E94002084E292E06A810E9431
:104C0000742003C08A818F5F8A838A81882F90E015
:104C1000FC01EC5DFD4F80818D3351F08A81882F3E
:104C200090E0FC01EC5DFD4F8081882309F0F4CE1B
:104C30001A8281E089832091C4013091C50140919D
:104C4000C6015091C7016091C8017091C90180915E
:104C5000CA019091CB012093A8013093A901409300
:104C6000AA015093AB016093AC017093AD018093A6
:104C7000AE019093AF015CC0A090A801B090A901D3
:104C8000C090AA01D090AB01E090AC01F090AD01D2
:104C90000091AE011091AF018981882F90E0880FBB
:104CA000991F880F991F880F991FFC01EC53FE4F25
:104CB0002080318042805380648075808680978018
:104CC0008A81882F90E0FC01EC5DFD4FE0812A2D68
:104CD0003B2D4C2D5D2D6E2D7F2D802F912FA22CE5
:104CE000B32CC42CD52CE62CF72C082D192D8E2E88
:104CF0000E94AA20A22EB32EC42ED52EE62EF72E69
:104D0000082F192FA092A801B092A901C092AA0160
:104D1000D092AB01E092AC01F092AD010093AE01F4
:104D20001093AF018A818F5F8A8389818F5F898326
:104D30008A81882F90E0FC01EC5DFD4F80818D33EE
:104D4000F9F08981882F90E0880F991F880F991FAB
:104D5000880F991FFC01EC53FE4F20813181428165
:104D600053816481758186819781E22FE32BE42B47
:104D7000E52BE62BE72BE82BE92BEE2309F07CCF84
:104D800084E026960FB6F894DEBF0FBECDBFCF915C
:104D9000DF911F910F91FF90EF90DF90CF90BF9028
:104DA000AF909F908F907F906F905F904F903F90CB
:104DB0002F900895DF93CF93CDB7DEB782E061E007
:104DC0000E94E8182091A8013091A9014091AA0100
:104DD0005091AB016091AC017091AD018091AE0139
:104DE0009091AF01DA01C901BC01CD010E94AA195D
:104DF00080E0CF91DF910895DF93CF930F92CDB7ED
:104E0000DEB7198219820AC08981882F90E0FC01DF
:104E1000EC54FE4F108289818F5F898389818031B4
:104E200098F3198217C08981882F90E0880F991F05
:104E3000880F991F880F991FFC01EC53FE4F1082B9
:104E4000118212821382148215821682178289813E
:104E50008F5F898389818C3030F319820AC0898100
:104E6000882F90E0FC01EC5DFD4F108289818F5FFF
:104E7000898389818B3098F31092B0011092B1012F
:104E80001092B2011092A8011092A9011092AA01E9
:104E90001092AB011092AC011092AD011092AE01D4
:104EA0001092AF0181E00F90CF91DF910895DF93D1
:104EB000CF930F92CDB7DEB70E9493140E943D1B93
:104EC00081E0898303C00E94CD1C89838981813060
:104ED000D1F303C00E945B1E898389818230D1F3A4
:104EE00003C00E94F324898389818330D1F303C0F6
:104EF0000E94DA26898389818430D1F303C00E941D
:104F0000FC26898389818823D1F30E94B31B8134D5
:104F1000E1F781E00E941C17D3CF629FD001739FFD
:104F2000F001829FE00DF11D649FE00DF11D929F45
:104F3000F00D839FF00D749FF00D659FF00D992784
:104F4000729FB00DE11DF91F639FB00DE11DF91FA8
:104F5000BD01CF0111240895A1E21A2EAA1BBB1B8B
:104F6000FD010DC0AA1FBB1FEE1FFF1FA217B30735
:104F7000E407F50720F0A21BB30BE40BF50B661F4B
:104F8000771F881F991F1A9469F76095709580950F
:104F900090959B01AC01BD01CF0108952F923F92E6
:104FA0004F925F926F927F928F929F92AF92BF9239
:104FB000CF92DF92EF92FF920F931F93CF93DF93E5
:104FC000CDB7DEB7CA1BDB0B0FB6F894DEBF0FBE42
:104FD000CDBF09942A88398848885F846E847D848F
:104FE0008C849B84AA84B984C884DF80EE80FD8091
:104FF0000C811B81AA81B981CE0FD11D0FB6F89407
:10500000DEBF0FBECDBFED010895AEE0B0E0EBE036
:10501000F8E20C94DC270D891E8986E08C831A83C4
:1050200009838FEF9FE79E838D839E01275E3F4F0D
:10503000CE0101966F89788DA9010E9429282F81C0
:105040003885020F131FF80110822E96E4E00C94AD
:10505000F827ABE0B0E0EFE2F8E20C94CE273C0199
:105060002B015A01FC0117821682838181FD03C046
:105070006FEF7FEFC6C19AE0892E1E010894211CB4
:10508000311CF3012381F20123FD859123FF8191DE
:105090002F01882309F4B2C1853239F423FD8591AB
:1050A00023FF81912F01853229F490E0B3010E9402
:1050B0001C2AE7CF982FFF24EE249924FFE1FF1547
:1050C000D0F09B3269F09C3228F4903259F0933240
:1050D00091F40EC09D3249F0903369F441E024C050
:1050E00052E0F52A84E0F82A28C098E0F92A25C081
:1050F000E0E1FE2A22C0F7FC29C0892F80538A30C4
:1051000070F4F6FE05C0989C902C1124980E15C0E2
:10511000E89CE02C1124E80EF0E2FF2A0EC09E323B
:1051200029F4F6FC6BC140E4F42A07C09C3619F45C
:1051300050E8F52A02C0983649F4F20123FD959112
:1051400023FF91912F01992309F0B8CF892F85541E
:10515000833018F08052833038F444E050E0A40EDD
:10516000B51E5FE359830FC0933631F0933779F062
:10517000933509F056C020C0F5018081898342E053
:1051800050E0A40EB51E610101E010E012C0F5016F
:10519000C080D180F6FC03C06FEF7FEF02C0692DA5
:1051A00070E042E050E0A40EB51EC6010E94112A34
:1051B0008C015FE7F52214C0F501C080D180F6FCB8
:1051C00003C06FEF7FEF02C0692D70E042E050E056
:1051D000A40EB51EC6010E94062A8C0150E8F52ACD
:1051E000F3FE07C01AC080E290E0B3010E941C2ABF
:1051F000EA948E2D90E008171907A8F30EC0F60167
:10520000F7FC8591F7FE81916F0190E0B3010E9458
:105210001C2AE110EA94015010400115110579F79C
:10522000EAC0943611F0993669F5F7FE08C0F50129
:10523000208131814281538184E090E00AC0F501F0
:10524000808191819C01442737FD4095542F82E055
:1052500090E0A80EB91E9FE6F92257FF09C05095AD
:105260004095309521953F4F4F4F5F4FE0E8FE2A24
:10527000CA01B901A1012AE030E00E94482AD82ED3
:10528000D21840C0953729F41F2D1F7E2AE030E048
:105290001DC01F2D197F9F3661F0903720F498357F
:1052A00009F0ACC00FC0903739F0983709F0A6C0AC
:1052B00004C028E030E00AC0106114FD146020E151
:1052C00030E004C014FD166020E132E017FF08C092
:1052D000F501608171818281938144E050E008C0D2
:1052E000F50180819181BC0180E090E042E050E0D6
:1052F000A40EB51EA1010E94482AD82ED2188FE70D
:10530000F82EF122F6FE0BC05EEFF522D91438F428
:10531000F4FE07C0F2FC05C08FEEF82202C01D2D7E
:1053200001C0192DF4FE0DC0FE01ED0DF11D8081AF
:10533000803319F499EEF92208C01F5FF2FE05C010
:1053400003C08F2D867809F01F5F0F2DF3FC14C06A
:10535000F0FE0FC01E1510F09D2C0BC09D2C9E0C56
:10536000911A1E2D06C080E290E0B3010E941C2A13
:105370001F5F1E15C0F304C01E1510F4E11A01C012
:10538000EE2404FF0FC080E390E0B3010E941C2ACA
:1053900002FF1DC001FD03C088E790E00EC088E554
:1053A00090E00BC0802F867891F001FF02C08BE265
:1053B00001C080E2F7FC8DE290E0B3010E941C2A5C
:1053C00006C080E390E0B3010E941C2A9A94D9148D
:1053D000C0F3DA94F101ED0DF11D808190E0B3018D
:1053E0000E941C2ADD20A9F706C080E290E0B301EC
:1053F0000E941C2AEA94EE20C1F743CEF301668195
:105400007781CB012B96E2E10C94EA27FC01059011
:10541000615070400110D8F7809590958E0F9F1FB6
:105420000895FC016150704001900110D8F78095FB
:1054300090958E0F9F1F08950F931F93CF93DF9327
:105440008C01EB018B8181FF1BC082FF0DC02E817F
:105450003F818C819D812817390764F4E881F981A7
:105460000193F983E88306C0E885F985802F0995C3
:10547000892B31F48E819F8101969F838E8302C098
:105480000FEF1FEFC801DF91CF911F910F9108958A
:10549000FA01AA27283051F1203181F1E8946F9365
:1054A0006E7F6E5F7F4F8F4F9F4FAF4FB1E03ED00B
:1054B000B4E03CD0670F781F891F9A1FA11D680FA9
:1054C000791F8A1F911DA11D6A0F711D811D911DDC
:1054D000A11D20D009F468943F912AE0269F112451
:1054E0003019305D3193DEF6CF010895462F4770B5
:1054F000405D4193B3E00FD0C9F7F6CF462F4F7010
:10550000405D4A3318F0495D31FD4052419302D06D
:10551000A9F7EACFB4E0A695979587957795679513
:10552000BA95C9F700976105710508959B01AC0113
:105530000A2E06945795479537952795BA95C9F73A
:10554000620F731F841F951FA01D0895F894FFCF4D
:10555000256C75002D0000257325642E25303464DC
:105560000053796E746178206572726F720000006A
:105570000000000000000001020203030303040412
:1055800004040404040405050505050505050505D1
:1055900005050505050506060606060606060606B1
:1055A000060606060606060606060606060606069B
:1055B0000606060606060707070707070707070781
:1055C000070707070707070707070707070707076B
:1055D000070707070707070707070707070707075B
:1055E000070707070707070707070707070707074B
:1055F0000707070707070808080808080808080831
:10560000080808080808080808080808080808081A
:10561000080808080808080808080808080808080A
:1056200008080808080808080808080808080808FA
:1056300008080808080808080808080808080808EA
:1056400008080808080808080808080808080808DA
:1056500008080808080808080808080808080808CA
:1056600008080808080808080808080808080808BA
:105670000808080808083132332B3435362D3738FE
:10568000392A30413D2F02000201020202030204C6
:085690000205020602070100F9
:00000001FF
